:020000040800F2
:10000000502500205101000831660008C155000844
:100010002D6600089D130008798E0008000000007E
:10002000000000000000000000000000257D000826
:100030004920000800000000F56D0008357E00082A
:100040006B0100086B0100086B01000835730008A4
:100050006B0100086B010008512000085D200008BA
:100060006B0100086B010008692000086B010008A3
:100070006B0100086B010008E11D00086B0100081E
:100080006B0100086B0100086B0100086B010008A0
:100090006B0100086B0100086B0100086B01000890
:1000A0006B0100086B0100086B0100086B01000880
:1000B0006B0100086B0100086B0100086B01000870
:1000C0006B0100086B0100086B0100086B01000860
:1000D00071860008196200086B0100086B010008B6
:1000E0006B0100086B0100086B0100086B01000840
:1000F000C9550008D15500086B0100086B010008C4
:100100006B0100086B0100086B0100086B0100081F
:100110006B0100086B0100086B0100086B0100080F
:100120006B0100086B010008F11D00086B0100085D
:100130006B0100086B0100086B010008DFF80CD0B0
:1001400000F062FA0048004715A70008502500207B
:100150000648804706480047FEE7FEE7FEE7FEE761
:10016000FEE7FEE7FEE7FEE7FEE7FEE7FD7E0008AE
:100170003D0100082DE9F05F0546002092469B46B0
:1001800088460646814640241BE0284641464746AD
:10019000224600F070F853465A46C01A914110D3D7
:1001A00011461846224600F057F82D1A67EB010851
:1001B0004F4622460120002100F04EF817EB0009BF
:1001C0004E41201EA4F10104DFDC484631462A4698
:1001D0004346BDE8F09F40EA01039B0703D009E0D6
:1001E00008C9121F08C0042AFAD203E011F8013B23
:1001F00000F8013B521EF9D27047D2B201E000F87C
:10020000012B491EFBD270470022F6E710B51346BA
:100210000A4604461946FFF7F0FF204610BD421C6F
:1002200010F8011B0029FBD1801A704730B50B462E
:10023000014600202022012409E021FA02F59D4216
:1002400005D303FA02F5491B04FA02F52844151EEA
:10025000A2F10102F1DC30BD202A04DB203A00FAD1
:1002600002F1002070479140C2F1200320FA03F30D
:10027000194390407047202A04DB203A21FA02F00B
:100280000021704721FA02F3D040C2F120029140D0
:100290000843194670472DE9FE4F804681EA030066
:1002A000C00F0C46009021F0004123F00045B8EB50
:1002B0000200A94105D24046214690461C460B4605
:1002C000024623F00040104347D0270DC7F30A0031
:1002D000C3F30A510290401A019040286BDAC3F32D
:1002E000130040F4801B0098924620B10023D2EB0B
:1002F000030A63EB0B0B01985946C0F140025046CC
:10030000FFF7AAFF06460D4650465946019A00F0EF
:100310008DF910EB08006141002487EA115284EA4C
:10032000E7731A4340D0009A62B3019A012A4FEA58
:10033000075215DC001B61EB02014FF0004202EA9C
:100340000752CDE90042001C41F5801132462B4690
:1003500000F08DF903B0BDE8F08F40462146F9E783
:10036000001B61EB0201001C41F5801300185B418A
:100370002018A2F5001747EB030140EAD570B61923
:100380006D4111E06D084FEA360645EAC0754FEA47
:100390000752001B61EB0201001C41F58011490866
:1003A0004FEA30000019514132462B4603B0BDE8F8
:1003B000F04F00F04DB90098012240000023D0EB2F
:1003C000020263EBE073009821464FEAE074B8EB59
:1003D000000061EB0401E9E783F000435BE781F093
:1003E000004158E72DE9FE4F81EA030404F0004480
:1003F00021F0004100944FF0000B23F0004350EA3D
:1004000001045ED052EA03045BD0C3F30A54C1F383
:100410000A552C44A4F2F3340194A0FB0254C1F316
:10042000130141F48011C3F3130343F4801301FB60
:10043000024400FB034E840A970A44EA815447EAC7
:100440008357A4FB076802958D0A05FB07854FEAD1
:10045000932C04FB0C542705029D4FEA065847EAEB
:100460001637B5EB08056EEB070C870E920E47EAC0
:10047000811742EA8312A7FB0201B6EB0B0164EB82
:1004800000042B0D43EA0C335E1844EB1C50DA4693
:100490005146E7FB0201C5F313044FEA0B3343EA6D
:1004A00014534FEA0432019C43EA0603A4F10C04FE
:1004B0000294009CCDE900B400F0D9F803B0BDE887
:1004C000F08F00200146F9E72DE9F04D81EA0304A1
:1004D00004F0004B21F0004514464FF0000A23F0D1
:1004E000004150EA050220D054EA01021DD0C5F3B4
:1004F0000A570246C5F31303C1F31300C1F30A56AA
:1005000040F4801543F48013A7EB0608101BD64671
:1005100008F2FD3873EB050002D308F1010801E091
:1005200092185B41B8F1000F03DA00200146BDE8E4
:10053000F08D00204FF48011064684460EE0171B14
:1005400073EB050705D3121B63EB050306434CEA67
:10055000010C49084FEA300092185B4150EA01074C
:10056000EDD152EA030012D082EA040083EA0501C9
:10057000084305D0101BAB4106D20122002306E040
:1005800000224FF0004302E06FF0010253101AEB1B
:1005900006004CEB085110EB0A0041EB0B01BDE8E3
:1005A000F04D00F055B8C1F30A52C1F3130140F207
:1005B000FF3341F480119A4202DA0020014670476D
:1005C00040F233439A42A2F2334202DC5242FFF736
:1005D00052BEFFF741BE000030B5041E71F10004A9
:1005E00004DB4FF00044404264EB0101141E73F140
:1005F000000405DB1C464FF00043524263EB04034A
:10060000994208BF904230BD064C074D06E0E068B5
:1006100040F0010394E8070098471034AC42F6D349
:10062000FFF790FD14B5000854B50008202A06DB3A
:10063000CB17203A41FA02F043EAE07306E041FAB0
:1006400002F3D040C2F1200291400843194670479E
:1006500010B5141E73F1000408DA401C41F10001CA
:1006600092185B411A4301D120F0010010BD2DE921
:10067000F04D92469B4611B1B1FA81F202E0B0FA18
:1006800080F220329046FFF7E7FD04460F4640EA2D
:100690000A0041EA0B0153465A46084313D011465B
:1006A00053EA010019D0C8F140025046FFF7E3FDBC
:1006B00005460E46504659464246FFF7CDFD0843D3
:1006C00005D0012004E020463946BDE8F08D002029
:1006D000054346EAE0762C4337430A986305E40A6B
:1006E000A0EB08000022FD0A44EA47540A3002D574
:1006F00000200146E9E7010510196941DDE90845D7
:1007000000196941BDE8F04DA2E730B58C1810F82A
:10071000012B12F00F0301D110F8013B120906D191
:1007200010F8012B03E010F8015B01F8015B5B1E80
:10073000F9D101E001F8013B521EFBD1A142E6D301
:10074000002030BD7047000080B58AB04BF27221A6
:10075000C0F6000103A81B220290FFF73CFD0190A8
:1007600007F066FD029807F009F800900AB080BD16
:1007700080B501F081FC01F083FC4FF4803005F07E
:1007800081F901F0A1FB00F003F8FFF7DBFF80BD6A
:1007900080B58EB000200D900C900B900A900990BF
:1007A000ADF82000ADF81E00ADF81C008DF8230058
:1007B000FFE79DF8230025285FDCFFE79DF8230075
:1007C0004BF26431C0F6000101EBC00080790028D3
:1007D0004CD0FFE79DF823004BF26431C0F60001D6
:1007E00051F83000B0F1904F069010D0FFE740F282
:1007F0000040C4F600000699814217D0FFE740F69A
:100800000000C4F60000069981421ED02CE09DF83D
:1008100023004BF26431C0F6000101EBC000808878
:10082000BDF820100843ADF820001EE09DF823001D
:100830004BF26431C0F6000101EBC0008088BDF8C6
:100840001E100843ADF81E000FE09DF823004BF288
:100850006431C0F6000101EBC0008088BDF81C10B7
:100860000843ADF81C0000E0FFE7FFE7FFE79DF855
:10087000230001308DF823009BE700200B9001201E
:100880000A9003200C90BDF82000002817D0FFE745
:10089000BDF8200009900120059004F015FF05988F
:1008A00005F02AF84FF0904009A9049001F052FE9B
:1008B000BDF820100022049801F0EEFFFFE7BDF81C
:1008C0001E00002819D0FFE7BDF81E000990022085
:1008D000039004F0F9FE039805F00EF840F2004092
:1008E000C4F6000009A9029001F034FEBDF81E1004
:1008F0000022029801F0D0FFFFE7BDF81C0000289D
:1009000019D0FFE7BDF81C0009900420019004F005
:10091000DBFE019804F0F0FF40F60000C4F6000092
:1009200009A9009001F016FEBDF81C1000220098E5
:1009300001F0B2FFFFE70EB080BD000084B00146B9
:100940000390039840680B300290029802300190A7
:10095000019800780028009101D1FFE700E0FFE74F
:1009600004B0704780B58CB001460B900020089011
:10097000079006900590049003900B9840680B3008
:100980000A900A980230099009980078002802918C
:1009900021D1FFE7FFF7D8FE4FF00F0E8DF814E0DE
:1009A0004FF07F0E8DF816E005F056F8049004988D
:1009B000ADF8200005F048F803900398ADF8220048
:1009C00005A806F0C7FE019000F048F801200021BC
:1009D00007F062FE0AE009980078012804D1FFE7D9
:1009E0000B980021017000E0FFE7FFE70CB080BD2D
:1009F00082B001468DF80700009102B070470000F8
:100A000080B58AB001460990099840680B3008907B
:100A100008980088A0F51240024607280391029228
:100A200019D80299DFE801F0040E121713141516F5
:100A300004A806F0B9FEDDF824E001907046FFF747
:100A400091FF09E00998FFF779FF05E004E003E072
:100A500002E001E000E0FFE70AB080BD80B598B099
:100A600092208DF85E004BF28D21C0F6000108A89F
:100A70003B220790FFF7AFFB069000F079FC0220C5
:100A8000012107F009FE4AF2A142C0F6000204204B
:100A9000002107F07FFE079806F046FE8DF85F0004
:100AA0009DF85F00002803D0FFE701F0E3FA00E0C3
:100AB000FFE700F023FB07F07DF840F2900EC2F252
:100AC000000E00208EF880004FF6FF71AEF8161071
:100AD00040F6B132C0F600020121059008460599A2
:100AE00007F058FE41F6A552C0F600020220059913
:100AF00007F050FE062009F01FF98DF85E009DF802
:100B00005E00002801D0FFE700E0FFE741F2285037
:100B1000C2F200000021017041F22950C2F200002F
:100B2000012202700491039205F0F4FE40F290005D
:100B3000C2F2000000F1810140F60143C0F600035B
:100B4000049A0290104604F01DF90299823147F68A
:100B5000CD53C0F60003049A0190104604F012F938
:100B60000499029A5176117640F28203C2F2000390
:100B70004FF0800EA3F800E040F28003C2F20003C1
:100B80004FF0A00EA3F800E0039B0090184600F081
:100B90003DF818B080BD000080B505F0FFFE80BDB7
:100BA00080B50220002108F055F880BD7047000094
:100BB00080B582B0012000F097F940F29000C2F2B7
:100BC000000090F88000052817D0FFE792208DF8EC
:100BD000070008F08BFD8DF8070040F29000C2F28C
:100BE00000004FF0000E80F880E09DF8070000281C
:100BF00001D0FFE700E0FFE7FFE702B080BD0000A3
:100C000080B50120002108F025F880BD80B58CB0AA
:100C100001468DF82F0092208DF82E009DF82F00B0
:100C2000012809910FD1FFE740F28200C2F20000D3
:100C30000088ADF82C0040F28000C2F2000000886D
:100C4000ADF82A0008E04FF4C860ADF82C004FF46E
:100C50007A60ADF82A00FFE740F29000C2F200008F
:100C600090F8810004F090FB9DF82F0002281ED11F
:100C7000FFE740F29000C2F2000090F880000128E7
:100C800009D0FFE740F29000C2F2000090F8800027
:100C900002280CD1FFE708F029FD8DF82E009DF801
:100CA0002E00002801D0FFE700E0FFE7FFE79DF8F6
:100CB0002F0040F29001C2F2000181F88000BDF8DF
:100CC0002C00BDF82A200B7EEC464FF0000ECCF82D
:100CD00018E0CCF814E01931CCF81010CCF80C3036
:100CE0004BF2B441C0F60001CCF808100821CCF852
:100CF0000410CCF800E0089070460899734608F09C
:100D0000CFFB8DF82E009DF82E00002801D0FFE7C4
:100D100000E0FFE740F23801C2F200010E2008F0C7
:100D200015FD8DF82E009DF82E00002808D0FFE755
:100D30009DF82F00012801D1FFE700E0FFE713E055
:100D40009DF82F0001280DD1FFE740F29000C2F27C
:100D5000000090F881004EF24601C0F2010104F05B
:100D600085FA00E0FFE7FFE70CB080BD70470000A8
:100D700080B586B00146ADF8160041F22950C2F2A6
:100D800000000078012802912ED1FFE741F229509E
:100D9000C2F20000002101702420ADF814003C20B4
:100DA000ADF81200ADF810104FF4FA70ADF80E0067
:100DB00040F29000C2F20000C08ABDF81410BDF8E5
:100DC0001220BDF81030BDF80EC0EE46CEF800C0BF
:100DD00009F0BCF88DF80D009DF80D00002801D039
:100DE000FFE700E0FFE7FFE706B080BD80B584B015
:100DF00001468DF80F009DF80F0002460028019172
:100E0000009204D0FFE70098012806D00BE03F20B5
:100E10000290029807F090FC06E03F2002900298B2
:100E200007F0E2FC00E0FFE704B080BD80B584B0CD
:100E300001460390039801900198406808300091A2
:100E400006F002FF8DF80B009DF80B00002804D07F
:100E5000FFE701980121017003E001980021017072
:100E6000FFE704B080BD00007047000080B58CB083
:100E700001468DF82F0000200A90099008900790F5
:100E800006900222059010460491039204F030FC73
:100E90009DF82F004BF21E31C0F6000131F8100012
:100EA00006900120079005980890039A09929DF8F2
:100EB0002FE040F21C03C2F2000353F82E000DF1A4
:100EC000180E02917146019301F044FB9DF82F002A
:100ED000019951F82020029B33F810101046059A12
:100EE00001F0DAFC0CB080BD80B584B001468DF80D
:100EF0000F009DF80F0040F21C02C2F2000252F8EF
:100F000020204BF21E33C0F6000333F810000023FC
:100F100002901046029A019111461A4601F0BCFC5B
:100F200004B080BD80B584B001468DF80F009DF8F7
:100F30000F0040F21C02C2F2000252F820204BF2D5
:100F40001E33C0F6000333F8100001230290104650
:100F5000029A019111461A4601F09EFC04B080BD30
:100F600080B58AB00A4603468DF827008DF8261012
:100F70000020089007900690059004900392029339
:100F8000FFE79DF82700002804D1FFE7042004F0C4
:100F9000AFFB13E09DF82700012804D1FFE70820EC
:100FA00004F0A6FB09E09DF82700022804D1FFE722
:100FB000082004F09DFBFFE7FFE7FFE7FFE79DF850
:100FC0002600002821D1FFE79DF827004BF21831B9
:100FD000C0F6000131F810000490002005900120B7
:100FE0000690022107919DF8271040F20C02C2F2F0
:100FF000000252F8211004AA01900846114601F09F
:10100000A9FA019801F03EFAFFE79DF826000128B1
:101010002ED1FFE79DF827004BF21831C0F60001F2
:1010200031F810000490012006904FF40410059050
:101030009DF8270040F20C01C2F2000151F8200097
:1010400004A901F087FA9DF827004BF21431C0F68D
:10105000000108564FF00F0E00220091714601F07A
:1010600091FD9DF827000099085601F073FDFFE7F8
:101070000AB080BD7047000080B586B004F048FD1E
:10108000039003980130002822D0FFE704F038FDD8
:10109000029004F02FFD0190039841F2B82EC2F2A5
:1010A000000E8EF800000398000A8EF801000198E7
:1010B0008EF8020002988EF803000298000A8EF85B
:1010C0000400BDF80A008EF80500CDF810E011E02C
:1010D000002005F027FB05900598002803D0FFE7C6
:1010E0000598049005E04BF2BC40C0F60000049067
:1010F000FFE7FFE7049806B080BD000070B590B030
:101100000020ADF8320092208DF8310009F0F4F89B
:101110008DF831009DF83100002801D0FFE700E094
:10112000FFE7FFF7A9FF0D900D9A0020062108F0B8
:10113000A9FE8DF831009DF83100002801D0FFE7AD
:1011400000E0FFE70D98407940F23801C2F200015B
:1011500008720D98007948720D98C07888720D98C1
:101160008078C8720D98407808730D98007848739D
:101170004BF2A442C0F600021820102108F082FEB3
:101180008DF831009DF83100002801D0FFE700E024
:10119000FFE74BF29442C0F600020820102108F04D
:1011A00071FE8DF831009DF83100002801D0FFE775
:1011B00000E0FFE70120182108F008FE8DF831005B
:1011C0009DF83100002801D0FFE700E0FFE708F0BC
:1011D00005FD8DF831009DF83100002801D0FFE7B2
:1011E00000E0FFE700208DF83F009DF83F0040F051
:1011F00001008DF83F009DF83F00012838DBFFE734
:101200004BF2E440C0F600000B909DF83F006946A9
:101210000EAA4A600DF13A020A60002107220FABC4
:1012200007F068FF8DF831009DF83100002801D0EB
:10123000FFE700E0FFE7BDF83C00BDF83A100B9A6D
:101240000A9010460991FEF7EAFF0B996A46116071
:10125000C3B200220A98099908F0F2FC8DF8310017
:101260009DF83100002801D0FFE700E0FFE7FFE72D
:10127000BDF83C00BDF838106A460DF1320313602A
:101280000022022308F0DCFC8DF831009DF83100CB
:10129000002801D0FFE700E0FFE7002002210891CD
:1012A000089A08F0AFFF8DF831009DF83100002852
:1012B00001D0FFE700E0FFE740F29000C2F200003B
:1012C00001210170007808F0C9F98DF831009DF80E
:1012D0003100002801D0FFE700E0FFE740F2900076
:1012E000C2F20000012141700822027110224271F5
:1012F0000022C2704BF20723C0F2010383608170A9
:10130000437890F802C090F803E00479457980684A
:101310006E463261F060C6F808E075603460604681
:1013200007911946079B06921A46069B08F01AF881
:101330008DF831009DF83100002801D0FFE700E072
:10134000FFE740F29000C2F20000807800280CD045
:10135000FFE707F09FFE8DF831009DF8310000286F
:1013600001D0FFE700E0FFE7FFE710B070BD00002D
:1013700080B582B040F22800C2F20300009040F62F
:10138000ED50C0F60000019040F62D60C0F6000060
:10139000694608F0B3FE02B080BD0000FFE7FEE73B
:1013A00080B582B0002001210191FFF7D9FD01989D
:1013B0000199FFF7D5FD02200199FFF7D1FD02B099
:1013C00080BD000070470000B0B5A2B09C469646B4
:1013D0000C46054620901F91ADF87A201D93002001
:1013E0001C90ADF86E008DF86D00189017908DF878
:1013F0005700ADF8540020980089B0FA80F04009F9
:1014000040008DF86D00209840690028CDF850C04C
:10141000CDF84CE0129411952DD0FFE7209800896B
:10142000002820D1FFE720980168426800690B5C22
:101430000130904210910F9307D3FFE72098416845
:1014400000690130401A0E9004E0209800690130D4
:101450000E90FFE70E981099085C0F9A02EB00209F
:1014600002300D9003E0209800890D90FFE70D9861
:10147000ADF86E00FFE720980089012805DBFFE743
:1014800020980089ADF87A00FFE72098C1680069CC
:10149000884209D3FFE7209841680069BDF86E20B3
:1014A0001044081A0C9002E000200C90FFE70C9802
:1014B0001690BDF87A009DF86D1008441D994843B8
:1014C0001699884203D2FFE700200B900BE0169894
:1014D000BDF87A109DF86D201144B0FBF1F202FBCB
:1014E00011000B90FFE70B988DF856009DF8560001
:1014F0009DF86D1000228842C8BF01228DF8572048
:101500009DF8570000280AD0FFE72098007FC00709
:10151000002804D0FFE79DF856000A9003E0BDF8CC
:1015200054000A90FFE70A98ADF854009DF8570060
:1015300000280AD0FFE72098007F8007002804D504
:10154000FFE79DF86D00099003E0BDF85400099095
:10155000FFE70998ADF85400BDF87A00002800F0C4
:10156000AA81FFE7209841684069BDF87A209DF87C
:101570006D301A441D9B02FB0300BDF8542010443B
:10158000884200F29881FFE700201990FFE7199840
:101590001D99884280F06F81FFE7209841680069BB
:1015A000BDF86E201044884209D3FFE720984168B7
:1015B0000069BDF86E201044401A089006E020989B
:1015C0000069BDF86E1008440890FFE7089820995C
:1015D0000861209800691A9020980089002837D166
:1015E000FFE7BDF87A00209909681A9A531C1A93EC
:1015F00088541A9820994968884206D3FFE71A98B8
:1016000020994968401A079002E01A980790FFE76E
:1016100007981A909DF87B00209909681A9A531C24
:101620001A9388541A9820994968884206D3FFE78C
:101630001A9820994968401A069002E01A98069074
:10164000FFE706981A902098416902314161FFE74F
:10165000209840681A99401ABDF87A10884206D23C
:10166000FFE7209840681A99401A059003E0BDF8FA
:101670007A000590FFE7059818901898BDF87A1041
:1016800088420BD0FFE71898BDF87A10884229D21B
:10169000FFE72098007F002824D1FFE7209800680A
:1016A0001A9908441F99199ABDF87A3002FB031160
:1016B000189AFEF790FD1899209A536919445161C0
:1016C00000211A9118991791BDF87A10189A891A61
:1016D0001891BDF87A109DF86D201144ADF86E1088
:1016E0000490A4E01898002800F0A080FFE720985C
:1016F000007FC007002838D0FFE720980089002825
:101700000ED1FFE7209800681A990844FF2100F8DD
:10171000021C209800681A9A104400F8011CFFE788
:10172000189820994A691044486100201790BDF824
:101730007A1018911A9020980089002814D1FFE798
:101740001898209909681A9A531C1A938854189863
:10175000000A209909681A9A531C1A9388542098F1
:10176000416902314161FFE756E02098007F800720
:10177000002850D5FFE720980089002847D1FFE7CF
:101780001898209909681A9A114401F8020C1898BF
:10179000000A209909681A9A114401F8010C20984E
:1017A00000681A9908441F99199ABDF87A3002FB0B
:1017B0000311189AFEF70FFD1899209A53691944DE
:1017C000516118991791BDF87A10189A891A1891D1
:1017D00020998A6901328A6100211A911899209A08
:1017E00012681A9B03F1010ECDF868E0D1541899E4
:1017F000090A209A12681A9B03F1010ECDF868E0DD
:10180000D15420994A6902324A61039002E00020D3
:10181000219056E0FFE7FFE718989DF86D10084407
:10182000ADF86E00209800210161FFE7FFE71898EE
:10183000002817D0FFE7209800681A9908441F99DC
:10184000199ABDF87A30DDF85CC002FB03C211447E
:10185000189AFEF7C0FC1899209A536919445161EF
:101860000290FFE72098816901318161FFE71998B3
:10187000013019908BE620980168426800699DF854
:101880006D3018449042019109D3FFE720984168D8
:1018900000699DF86D201044401A009006E02098E1
:1018A00000699DF86D1008440090FFE700980199C9
:1018B00008441C9002E00020219002E01C98219036
:1018C000FFE7219822B0B0BD70B589B0DDF834C013
:1018D0009E4614460D460646079006910592ADF8C1
:1018E00012308DF811C006980799086007980021FA
:1018F000C160079801610798416107988161059867
:1019000007994860BDF81200079908819DF81100F9
:10191000079908779DF8110080070028CDF80CE0A2
:1019200002940195009609D5FFE7079800890028E1
:1019300004D0FFE74FF0FF30089002E0002008904D
:10194000FFE7089809B070BD92B00A4603461190AF
:10195000109100208DF83F000E9011990989B1FA7D
:1019600081F1490949008DF83F10ADF83600119812
:10197000406900280C920B9300F0E680FFE7119875
:10198000008900281FD1FFE7119801684268C068EC
:101990000B5C013090420A91099307D3FFE711983D
:1019A0004168C0680130401A089004E01198C0688E
:1019B00001300890FFE708980A99085C099A02EB41
:1019C0000020079003E0119800890790FFE707982F
:1019D000ADF836001198007FC00700285CD0FFE703
:1019E0001198007F8007002856D4FFE7BDF8360025
:1019F0004FF6FF71884205D1FFE711980089002852
:101A000013D0FFE71198C1680069814243D9FFE70D
:101A10001198008900283ED0FFE711984168C268FC
:101A2000891A0089814236D2FFE711984168C2685D
:101A30004369511A1944416111980021C1601198FC
:101A4000008900281FD1FFE7119801684268C0682B
:101A50000B5C013090420691059307D3FFE7119884
:101A60004168C0680130401A049004E01198C068D1
:101A700001300490FFE704980699085C059A02EB90
:101A80000020039003E0119800890390FFE703987A
:101A9000ADF83600FFE7FFE7119801684268C068BB
:101AA0009DF83F3018449042029109D3FFE7119806
:101AB0004168C0689DF83F201044401A019006E03C
:101AC0001198C0689DF83F1008440190FFE7019805
:101AD000029908440E90BDF836009DF83F2010444E
:101AE000119A5369181A506111984069002826D03C
:101AF000FFE711984168C068BDF8362010449DF892
:101B00003F20104488420CD3FFE711984168C06819
:101B1000BDF8362010449DF83F201044401A009034
:101B200009E01198C068BDF8361008449DF83F10D0
:101B300008440090FFE700981199C860FFE71198EA
:101B4000816901398161FFE71098002805D0FFE71E
:101B5000BDF8360010990880FFE70E9812B0704764
:101B600092B00A4603461190109100208DF83F0074
:101B70000E9011990989B1FA81F1490949008DF84E
:101B80003F10ADF836000C901198406900280B9278
:101B90000A9300F0A780FFE71198C0680C90119895
:101BA000008900281FD1FFE7119801684268C068CA
:101BB0000B5C013090420991089307D3FFE711981D
:101BC0004168C0680130401A079004E01198C0686D
:101BD00001300790FFE707980999085C089A02EB23
:101BE0000020069003E0119800890690FFE7069810
:101BF000ADF836001198007FC007002853D0FFE7EA
:101C00001198007F800700284DD4FFE7BDF836000B
:101C10004FF6FF71884205D1FFE71198008900282F
:101C200013D0FFE71198C168006981423AD9FFE7F4
:101C300011980089002835D0FFE711984168C268E3
:101C4000891A008981422DD2FFE700200C9011985B
:101C5000008900281ED1FFE711980C99026840689E
:101C6000535C013181420592049307D3FFE70C983E
:101C7000013011994968401A039003E00C98013033
:101C80000390FFE703980599085C049A02EB002093
:101C9000029003E0119800890290FFE70298ADF8E6
:101CA0003600FFE7FFE71198016840680C9A9DF83D
:101CB0003F301A448242019109D3FFE70C989DF806
:101CC0003F10084411994968401A009005E00C98AB
:101CD0009DF83F1008440090FFE7009801990844E0
:101CE0000E90FFE71098002805D0FFE7BDF83600FA
:101CF00010990880FFE70E9812B0704780B584B045
:101D000001468DF80F009DF80F00002802911AD1AE
:101D1000FFE741F28410C2F20000006800280BD0F7
:101D2000FFE741F28410C2F2000000680021019038
:101D3000084601998847FFE740F27C00C2F20000A4
:101D40000021017019E040F27C00C2F20000012184
:101D5000017041F28410C2F20000006800280BD02C
:101D6000FFE741F28410C2F20000006801210090F8
:101D7000084600998847FFE7FFE704B080BD0000F0
:101D800080B582B0002004F0CDFC019001980028BD
:101D900005D0FFE70198807903F02AFFFFE702B042
:101DA00080BD000080B540F29000C2F2000090F8C3
:101DB0008000012811D0FFE740F29000C2F200003D
:101DC00090F88000002808D0FFE740F29000C2F2AF
:101DD0000000C08AFEF7CCFFFFE780BD704700001F
:101DE00080B541F2E020C2F2000000F00BFA80BDA5
:101DF00080B541F24030C2F2000000F003FA80BD2D
:101E0000B0B588B09C4696460C46054607900691AC
:101E1000059204930798C16C006D48600798406D67
:101E20000028CDF80CC0CDF808E00194009505D04D
:101E3000FFE70798816DC06D4860FFE70798016C68
:101E4000406C00F01C00012202FA00F04860049887
:101E500007990968486007988068102809D1FFE74A
:101E60000598079909688860069807990968C86005
:101E700008E0069807990968886005980799096835
:101E8000C860FFE708B0B0BD80B504F0CDFB80BDF1
:101E900010B588B013468C4686460790ADF81A10E8
:101EA00005920799BDF81A20059800240490204651
:101EB000049C03932346CDF808C0CDF804E003F05A
:101EC0000DFB009008B010BD80B582B0FFF7DCFFBD
:101ED000EE460220CEF8000040F24810C2F20000A8
:101EE00040F26811C2F200014FF480520023FFF764
:101EF000EBFC019002B080BD80B58EB013468C46DD
:101F0000864609900891079200200690EFF3108012
:101F10000A900A9804900998013000280393CDF89C
:101F200008C0CDF804E003D1FFE7002006904AE0A6
:101F30000998012808D0FFE70998022804D0FFE794
:101F40004FF0FF3006903DE00798002839D0FFE7BA
:101F500007980690EFF3108072B60B900899BDF8C1
:101F60001C2040F24810C2F200000123FFF72CFAB7
:101F70000590059800281DD0FFE740F21800C2F236
:101F800000000078002815D0FFE740F21800C2F2E8
:101F900000000021017004980C900C9880F31088C8
:101FA0000598BDF81C1041F6CD72C0F60002FFF78F
:101FB0006FFF05E004980D900D9880F31088FFE7FF
:101FC000FFE7FFE7FFE706980EB080BD80B58AB057
:101FD000EFF31080069006980390EFF3108072B62E
:101FE000079040F24810C2F200000DF11201029079
:101FF0000191FFF7A9FC0299009008460199FFF7AB
:10200000AFFD0590059800280FD0FFE703980890D2
:10201000089880F310880598BDF8121041F6CD722B
:10202000C0F60002FFF734FF0BE040F21800C2F2E6
:1020300000000121017003980990099880F310882D
:10204000FFE70AB080BD0000704700007047000045
:1020500080B5012000F060FA80BD000080B502204C
:1020600000F05AFA80BD000080B5102000F054FA4C
:1020700080BD00007047000080B503F0D1FC80BD3A
:1020800080B503F0D7FC80BD83B001460190019874
:102090000028009104D1FFE701208DF80B0050E0EB
:1020A000019890F8250002280DD0FFE7019804213F
:1020B000C163FFE70198002180F82410FFE70120A9
:1020C0008DF80B003DE001980068016821F00E01D9
:1020D00001600198806C016821F4807101600198B1
:1020E0000068016821F0010101600198016C406CF9
:1020F00000F01C00012202FA00F048600198C16C57
:10210000006D48600198406D00280BD0FFE70198F2
:10211000406D016821F4807101600198816DC06D8E
:102120004860FFE70198012180F82510FFE701983A
:10213000002180F82410FFE7FFE700208DF80B0056
:10214000FFE79DF80B0003B07047000080B584B036
:102150000146039000208DF80B00039890F82500AD
:102160000228019107D0FFE703980421C1630120F1
:102170008DF80B0042E003980068016821F00E0121
:10218000016003980068016821F001010160039873
:10219000806C016821F4807101600398016C406CCF
:1021A00000F01C00012202FA00F048600398C16CA4
:1021B000006D48600398406D00280BD0FFE703983E
:1021C000406D016821F4807101600398816DC06DDC
:1021D0004860FFE70398012180F82510FFE7039886
:1021E000002180F82410FFE70398806B002804D0BA
:1021F000FFE70398816B8847FFE7FFE79DF80B0037
:1022000004B080BD80B584B0014603900398006C93
:102210000068029003980068006801900298039A91
:10222000526C02F01C02042303FA02F210420091E5
:1022300027D0FFE79DF804004007002821D5FFE7DD
:102240000398006800688006002807D4FFE7039819
:102250000068016821F004010160FFE70398016C48
:10226000406C00F01C00042202FA00F04860039861
:10227000006B002804D0FFE70398016B8847FFE755
:1022800073E002980399496C01F01C01022202FAE2
:1022900001F1084231D0FFE79DF8040080070028D3
:1022A0002BD5FFE7039800680068800600280BD450
:1022B000FFE703980068016821F00A0101600398B4
:1022C000012180F82510FFE70398016C406C00F0B5
:1022D0001C00022202FA00F04860FFE70398002188
:1022E00080F82410FFE70398C06A002804D0FFE7B5
:1022F0000398C16A8847FFE736E002980399496C62
:1023000001F01C01082202FA01F108422AD0FFE77D
:102310009DF804000007002824D5FFE70398006813
:10232000016821F00E0101600398016C406C00F01F
:102330001C00012202FA00F048600398C26303986F
:1023400080F82520FFE70398002180F82410FFE79C
:102350000398406B002804D0FFE70398416B88473F
:10236000FFE700E0FFE7FFE7FFE704B080BD000004
:10237000B0B58AB09C4696460C4605460890079133
:102380000692059300208DF81300CDF80CC0CDF80F
:1023900008E001940095FFE7089890F824000128D0
:1023A00004D1FFE702208DF8270067E0089801219B
:1023B00080F82410FFE7FFE7089890F8250001282F
:1023C0004DD1FFE70898022180F8251008980021D8
:1023D000C16308980068016821F001010160089854
:1023E0000799069A059BFFF70BFD0898006B0028DC
:1023F00007D0FFE708980068016841F00E0101600E
:102400000CE008980068016821F004010160089858
:102410000068016841F00A010160FFE70898806CDC
:102420000068C003002807D5FFE70898806C0168A2
:1024300041F480710160FFE70898406D002807D0E3
:10244000FFE70898406D016841F480710160FFE783
:1024500008980068016841F00101016009E0FFE7A8
:102460000898002180F82410FFE702208DF813005F
:10247000FFE79DF813008DF82700FFE79DF8270080
:102480000AB0B0BD80B584B001460390009100F061
:1024900023FA02900398019001980130002807D098
:1024A000FFE700F01FFADDF804E070440190FFE759
:1024B000FFE700F011FADDF808E0A0EB0E00DDF810
:1024C00004E0704504D2FFE703F028FB30BFF0E7DB
:1024D00004B080BD80B584B00146ADF80E00BDF8F3
:1024E0000E0002460128029101920BD0FFE70198ED
:1024F00002280AD0FFE70198102809D1FFE7FEF76C
:102500004BFB06E0FEF74CFB03E0FEF74FFB00E061
:10251000FFE704B080BD000080B582B00146ADF891
:10252000060040F60C00C5F600000068BDF8062065
:10253000104200910CD0FFE7BDF8060040F60C01F8
:10254000C5F600010860BDF80600FFF7C3FFFFE70E
:1025500002B080BD8BB00A4603460A900991002064
:10256000089005920493FFE7099800680899C8400D
:10257000002800F08E81FFE7099800680899012281
:1025800002FA01F1084007900798002800F07D81C9
:10259000FFE70998406800F00300012807D0FFE733
:1025A0000998406800F0030002282FD1FFE70A983D
:1025B0008068069008984000032101FA00F006990F
:1025C00021EA000006900998C068089949008840EF
:1025D00006990843069006980A9988600A98406808
:1025E00006900898012101FA00F0069921EA0000FE
:1025F000069009984068C0F3001008998840069931
:102600000843069006980A994860FFE709984068D1
:1026100000F00300032818D0FFE70A98C06806906E
:1026200008984000032101FA00F0069921EA000011
:1026300006900998806808994900884006990843DF
:10264000069006980A99C860FFE70998406800F06C
:102650000300022826D1FFE70A9808996FF00302C9
:1026600002EA51010844006A0690089800F0070049
:1026700080000F2101FA00F0069921EA000006907F
:1026800009980069089901F00701890088400699B6
:102690000843069006980A99089B02EA53021144DF
:1026A0000862FFE70A980068069008984000032136
:1026B00001FA00F0069921EA0000069009984068A6
:1026C00000F00300089949008840069908430690E5
:1026D00006980A990860099880798007002800F018
:1026E000D380FFE7089820F003000821C4F201011D
:1026F00040580690089800F0030080000F2101FA6E
:1027000000F0069921EA000006900A98B0F1904F77
:1027100003D1FFE70020039034E00A9840F2004123
:10272000C4F60001884203D1FFE70120029026E0B1
:102730000A9840F60001C4F60001884203D1FFE781
:102740000220019018E00A9840F60041C4F600010A
:10275000884203D1FFE7032000900AE00A9841F283
:102760000001C4F600010722884208BF042200923B
:10277000FFE700980190FFE701980290FFE70298B9
:102780000390FFE70398089901F00301890088404E
:102790000699084306900698089921F0030108223B
:1027A000C4F20102885040F60000C5F6000000683F
:1027B00006900798069921EA00000690099880790A
:1027C000C006002805D5FFE707980699084306903C
:1027D000FFE7069840F60001C5F60001086040F6E4
:1027E0000400C5F60000006806900798069921EAE3
:1027F00000000690099880798006002805D5FFE73B
:102800000798069908430690FFE7069840F60401EA
:10281000C5F60001086040F68000C5F600000068BB
:1028200006900798069921EA000006900998807999
:10283000C007002805D0FFE70798069908430690CF
:10284000FFE7069840F68001C5F60001086040F6F3
:102850008400C5F60000006806900798069921EAF2
:1028600000000690099880798007002805D5FFE7C9
:102870000798069908430690FFE7069840F68401FA
:10288000C5F600010860FFE7FFE7089801300890EF
:102890006AE60BB07047000080B585B013468C46E1
:1028A00086460490ADF80E108DF80D209DF80D00B1
:1028B00000280293CDF804C0CDF800E005D0FFE772
:1028C000BDF80E000499886104E0BDF80E0004997B
:1028D0008862FFE705B080BD41F24C50C2F20000B3
:1028E0000068704740F24600C2F20000007870476E
:1028F00040F24800C2F200000068704780B584B022
:102900000146039000208DF80B00039800280091E9
:1029100027D0FFE740F60040C5F60000019003987D
:1029200090F83800002804D1FFE7039800F022F85F
:10293000FFE7019802F050FE0198D0F800E04EF059
:10294000011EC0F800E0039802F056FE03984FF015
:10295000000EC0F834E003984FF0010E80F838E024
:1029600003E001208DF80B00FFE79DF80B0004B099
:1029700080BD000080B586B00146059005980068CE
:1029800040F60042C5F60002904204911BD1FFE7D9
:102990004FF4801002F0D4FE2C204FF0000E039074
:1029A00071467246CDF808E000F0ECF8039800F0AC
:1029B000D1F82D2001900299029A00F0E3F80198D5
:1029C00000F0C8F8FFE706B080BD000080B586B013
:1029D00013468C468646059004918DF80F2002938D
:1029E000CDF804C0CDF800E006B080BD80B586B05B
:1029F00013468C468646059004918DF80F2002936D
:102A0000CDF804C0CDF800E006B080BD40F246002D
:102A1000C2F20000007841F24C51C2F200010A6893
:102A2000104408607047000080B582B000208DF827
:102A3000070044F20001C5F600010A6842F4807202
:102A40000A6003210090084600F0C0F8009800F0EA
:102A50000FF8002804D0FFE701208DF8070002E0FE
:102A600000F04CF8FFE79DF8070002B080BD0000C1
:102A700080B584B00146039000208DF80B0040F231
:102A80004600C2F200000078002801912ED0FFE736
:102A900000F0EEFB40F2460EC2F2000E9EF800E09F
:102AA0004FF47A71B1FBFEF1B0FBF1F001F0FEFAE8
:102AB000002816D1FFE703980F280DD8FFE70399E8
:102AC0004FF0FF30002200F05DF8039840F248011B
:102AD000C2F20001086003E001208DF80B00FFE75F
:102AE00003E001208DF80B00FFE703E001208DF8E3
:102AF0000B00FFE79DF80B0004B080BD80B582B0ED
:102B00004FF4002002F01CFE2E204FF0000E01902A
:102B10007146724600F036F8019800F01BF802B0DA
:102B200080BD000080B582B001468DF807009DF998
:102B30000700009106F0A4F902B080BD80B582B014
:102B400001468DF807009DF90700009106F0B4F9E1
:102B500002B080BD80B582B001468DF807009DF9B6
:102B60000700009106F0C8F902B080BD80B582B0C0
:102B700001468DF807009DF90700009106F0E0F985
:102B800002B080BD80B58AB013468C4686468DF86B
:102B90002700089107920593CDF810C0CDF80CE0FE
:102BA00006F0C6F906909DF927000699089A079B3A
:102BB0000290084611461A4603F03CFD0299019026
:102BC0000846019906F0D8F90AB080BD80B582B0F8
:102BD000014601900198009106F0F4F902B080BD21
:102BE00040F20040C5F60000006800F4C060704785
:102BF00040F20040C5F60000016841F480710160B8
:102C00007047000080B58AB00146099000208DF819
:102C10001F008DF81E0009980068400600280391E7
:102C20003AD5FFE70998006B0028029017D0FFE71C
:102C30000298B0F5800F0AD0FFE70298B0F5000FB8
:102C400015D0FFE70298B0F5400F0FD010E00C2030
:102C5000C5F60000016841F4803101600CE009987C
:102C6000043004F0E5F88DF81F0005E004E003E00F
:102C700001208DF81F00FFE79DF81F00002805D1F7
:102C8000FFE70998006B03F045FA04E09DF81F0088
:102C90008DF81E00FFE7FFE709980068000500288F
:102CA00057D5FFE702F078FF06900698DDF824E09C
:102CB000DEF840E0704546D0FFE7FFF799FFDDF80A
:102CC00018E0BEF1000F05D1FFE70998006C03F092
:102CD00011FA33E09020C5F60000016805910190DB
:102CE00002F040FF03F032F9059820F44070099992
:102CF000096C0843059005980199086003F024F8D1
:102D000001281AD1FFE7FFF7E7FD0890FFE703F07E
:102D10002BF8012810D0FFE7FFF7DEFDDDF820E0FB
:102D2000A0EB0E0041F2893E704504D3FFE703207B
:102D30008DF81F0000E0EAE7FFE7FFE79DF81F00BE
:102D40008DF81E0004E09DF81F008DF81E00FFE7BF
:102D5000FFE709980068C007002805D0FFE7099839
:102D6000806903F017FAFFE70998006880070028D8
:102D700005D5FFE70998C06903F08CF9FFE70998CA
:102D80000068C006002805D5FFE70998806A03F0AF
:102D90006DF9FFE7099800688006002805D5FFE770
:102DA0000998C06A03F062F9FFE7099800684007D4
:102DB000002805D5FFE70998006A03F041F9FFE70D
:102DC000099800680007002805D5FFE70998406AC0
:102DD00003F036F9FFE709980068C00500282AD5F6
:102DE000FFE70998406B03F0E5F90998406BB0F1F3
:102DF000006F08D1FFE70C20C5F60000016841F024
:102E000080710160FFE70998406BB0F1806F11D1CC
:102E1000FFE70998043004F06FF88DF81F009DF863
:102E20001F00002805D0FFE79DF81F008DF81E0049
:102E3000FFE7FFE7FFE7099800688005002833D522
:102E4000FFE7FFE70998806BB0F1804F0BD0FFE7F9
:102E50000998806BB0F1004F05D0FFE70998806BAF
:102E6000002805D1FFE70998806B03F033F90BE0E8
:102E70000998806B20F080500490002003F02AF91C
:102E8000049803F0BDF8FFE7FFE70998806BB0F105
:102E9000C05F08D1FFE70C20C5F60000016841F0D3
:102EA00080710160FFE7FFE709980068400500288E
:102EB0002AD5FFE70998C06B03F050F80998C06B5A
:102EC000B0F1005F08D1FFE70C20C5F600000168F3
:102ED00041F480310160FFE70998C06BB0F1805F79
:102EE00011D1FFE70998043004F06AF88DF81F004B
:102EF0009DF81F00002805D0FFE79DF81F008DF802
:102F00001E00FFE7FFE7FFE709980068C0040028FC
:102F100005D5FFE70998406C03F0CCF8FFE7099866
:102F200000688004002809D5FFE70998C06C03F009
:102F300011F90998806C03F0FDF8FFE79DF81E0079
:102F40000AB080BD80B586B00A460346049003915E
:102F5000049800280192009304D1FFE701208DF826
:102F6000170081E1039844F20001C5F600010968E9
:102F700001F00701884228D9FFE744F20000C5F6B6
:102F80000000016821F00701039A11430160FFF777
:102F9000A3FC0290FFE744F20000C5F600000068C1
:102FA00000F00700039988420ED0FFE7FFF794FC7A
:102FB000DDF808E0A0EB0E00032804D3FFE70320B0
:102FC0008DF8170050E1E6E7FFE7049800688007F6
:102FD00000281CD5FFE70498806802F0E1FFFFF7A6
:102FE0007BFC0290FFE702F05FFE00280ED1FFE7B6
:102FF000FFF772FCDDF808E0A0EB0E00032804D315
:10300000FFE703208DF817002EE1ECE7FFE70498B7
:103010000068800600281CD5FFE70498406902F08C
:10302000EFFCFFF759FC0290FFE702F035FE0028A5
:103030000ED1FFE7FFF750FCDDF808E0A0EB0E0033
:10304000032804D3FFE703208DF817000CE1ECE719
:10305000FFE704980068400600281CD5FFE70498A5
:10306000806902F08BFFFFF737FC0290FFE702F068
:1030700043FE00280ED1FFE7FFF72EFCDDF808E045
:10308000A0EB0E00032804D3FFE703208DF8170000
:10309000EAE0ECE7FFE704980068400700281CD549
:1030A000FFE70498C06802F08BFFFFF715FC029061
:1030B000FFE702F009FE00280ED1FFE7FFF70CFC46
:1030C000DDF808E0A0EB0E00032804D3FFE703209F
:1030D0008DF81700C8E0ECE7FFE7049800680007E8
:1030E00000281DD5FFE704980069C00002F078FFB2
:1030F000FFF7F2FB0290FFE702F0EEFD00280ED191
:10310000FFE7FFF7E9FBDDF808E0A0EB0E0003287E
:1031100004D3FFE703208DF81700A5E0ECE7FFE7F5
:1031200004980068C00700285CD0FFE70498406856
:1031300002280AD1FFE702F055FD002804D1FFE77D
:1031400001208DF817008FE029E0049840680328DB
:103150000AD1FFE702F0ECFE002804D1FFE70120CE
:103160008DF8170080E019E00498406800280AD123
:10317000FFE702F073FE002804D1FFE701208DF87D
:10318000170071E009E002F071FD002804D1FFE7AB
:1031900001208DF8170067E0FFE7FFE7FFE70498DD
:1031A000406802F0E7FFFFF797FB0290FFE702F0AD
:1031B000FBFCDDF810E0DEF804E0B0EB8E0F10D081
:1031C000FFE7FFF789FBDDF808E0A0EB0E0041F216
:1031D000893E704504D3FFE703208DF8170043E0D4
:1031E000E5E7FFE7039844F20001C5F6000109682E
:1031F00001F00701884228D2FFE744F20000C5F63B
:103200000000016821F00701039A11430160FFF7F4
:1032100063FB0290FFE744F20000C5F6000000687F
:1032200000F00700039988420ED0FFE7FFF754FB38
:10323000DDF808E0A0EB0E00032804D3FFE703202D
:103240008DF8170010E0E6E7FFE700F011F840F214
:10325000300EC2F2000ECEF80000FFF749FBFFF778
:1032600007FC8DF81700FFE79DF8170006B080BD3A
:1032700080B582B000F012F8019002F085FC00F0F9
:10328000F00080084BF2D42EC0F6000E5EF800006D
:10329000DDF804E0BEFBF0F002B080BD80B58AB07E
:1032A00002F082FC0690069800280DD1FFE702F09C
:1032B000C3FD00F0F00080084BF2243EC0F6000E83
:1032C0005EF80000089077E00698042806D1FFE732
:1032D00042F20040C0F2F40008906CE00698082822
:1032E00012D1FFE702F078FC012806D1FFE742F295
:1032F0000040C0F2F400089005E044F60000C0F27F
:10330000E8100890FFE755E002F0FAFD09900998EF
:103310000128059020D0FFE70598022804D0FFE798
:103320000598032806D018E042F20040C0F2F400ED
:1033300007901FE002F050FC012806D1FFE742F29F
:103340000040C0F2F400079005E044F60000C0F22F
:10335000E8100790FFE70DE0FFE702F06DFD00F0D9
:10336000F00080084BF2243EC0F6000E5EF800002C
:103370000790FFE70798049002F0CAFDDDF810E01F
:103380000EFB00F0039002F0B3FD4FF0010E0EEBC8
:1033900010100399B1FBF0F0CDF808E0019002F0B5
:1033A000BFFD029901EB5070DDF804E0BEFBF0F0C8
:1033B0000890FFE7FFE7FFE708980AB080BD00002C
:1033C00010B58EB001460C900C980028029105D1E2
:1033D000FFE701208DF8370000F02ABC0C98006848
:1033E0008006002840F1AA80FFE702F0DDFB0A908A
:1033F00002F086FD09900A98002808D0FFE70A9895
:103400000C2858D1FFE70998012854D1FFE70C9800
:10341000C069002805D1FFE701208DF8370000F0D2
:1034200007BC0C98406A019002F006FDDDF804E04C
:10343000864514D9FFE70C98406A03F0C5FE0028C2
:1034400004D0FFE701208DF83700F1E30C98406AC3
:1034500002F01AFD0C98006A02F006FD13E00C98C9
:10346000406A02F011FD0C98006A02F0FDFC0C9815
:10347000406A03F0A9FE002804D0FFE701208DF880
:103480003700D5E3FFE7FFF7F3FE40F2300EC2F25C
:10349000000ECEF8000040F24800C2F200000068C2
:1034A000FFF7E6FA002804D0FFE701208DF8370087
:1034B000BEE3FFE741E00C98C069002822D0FFE797
:1034C00002F0B2FCFFF708FA0B90FFE702F0C6FC2F
:1034D00000280ED1FFE7FFF7FFF9DDF82CE0A0EBA5
:1034E0000E00032804D3FFE703208DF837009FE385
:1034F000ECE70C98406A02F0C7FC0C98006A02F0F6
:10350000B3FC19E002F088FCFFF7E6F90B90FFE747
:1035100002F0A4FC00280ED0FFE7FFF7DDF9DDF88C
:103520002CE0A0EB0E00032804D3FFE703208DF866
:1035300037007DE3ECE7FFE7FFE7FFE70C98006863
:10354000C007002861D0FFE702F02EFB089002F0D0
:10355000D7FC07900898082808D0FFE708980C289F
:103560000ED1FFE7079803280AD1FFE70C984068BF
:10357000002804D1FFE701208DF8370058E343E02D
:10358000FFE70C984068B0F5803F03D1FFE702F0F9
:103590001BFB02E002F010FBFFE7FFE70C9840681E
:1035A000002818D0FFE7FFF797F90B90FFE702F02C
:1035B00019FB00280ED1FFE7FFF78EF9DDF82CE0AC
:1035C000A0EB0E00652804D3FFE703208DF8370039
:1035D0002EE3ECE717E0FFF77FF90B90FFE702F02F
:1035E00001FB00280ED0FFE7FFF776F9DDF82CE0AD
:1035F000A0EB0E00652804D3FFE703208DF8370009
:1036000016E3ECE7FFE7FFE7FFE70C9800688007A9
:10361000002860D5FFE702F0C7FA069002F070FCC0
:1036200005900698042808D0FFE706980C2813D1C7
:10363000FFE7059802280FD1FFE70C98C068002823
:1036400004D1FFE701208DF83700F1E20C98006902
:1036500002F012FBFFE73DE00C98C06800281ED086
:10366000FFE702F0FBFAFFF737F90B90FFE702F0F4
:10367000FDFA00280ED1FFE7FFF72EF9DDF82CE068
:10368000A0EB0E00032804D3FFE703208DF83700DA
:10369000CEE2ECE70C98006902F0EEFA19E002F0D5
:1036A000D5FAFFF719F90B90FFE702F0DFFA0028CF
:1036B0000ED0FFE7FFF710F9DDF82CE0A0EB0E00CD
:1036C000032804D3FFE703208DF83700B0E2ECE7CE
:1036D000FFE7FFE7FFE70C98006800F00800082804
:1036E00007D0FFE70C980068C006002840F1C880AA
:1036F000FFE70C984069002800F08E80FFE70C98E7
:103700000068C006002856D5FFE702F055FB0028E8
:103710001AD1FFE702F048FBFFF7DEF80B90FFE756
:1037200002F04AFB00280ED1FFE7FFF7D5F8DDF8DD
:103730002CE0A0EB0E00032804D3FFE703208DF854
:10374000370075E2ECE7FFE702F046FBFFF7C4F84D
:103750000B90FFE702F048FB00280ED1FFE7FFF7D0
:10376000BBF8DDF82CE0A0EB0E00042804D3FFE743
:1037700003208DF837005BE2ECE70C98806902F0DB
:103780003BFB02F009FBFFF7A7F80B90FFE702F005
:1037900013FB00280ED0FFE7FFF79EF8DDF82CE0C2
:1037A000A0EB0E00032804D3FFE703208DF83700B9
:1037B0003EE2ECE72FE002F0F7FAFFF78DF80B900E
:1037C000FFE702F0F9FA00280ED1FFE7FFF784F8CF
:1037D000DDF82CE0A0EB0E00032804D3FFE7032064
:1037E0008DF8370024E2ECE702F0EEFAFFE702F092
:1037F000FBFA00280ED0FFE7FFF76EF8DDF82CE0AB
:10380000A0EB0E00042804D3FFE703208DF8370057
:103810000EE2ECE7FFE732E002F0D6FAFFF75CF8E1
:103820000B90FFE702F0E0FA00280ED0FFE7FFF769
:1038300053F8DDF82CE0A0EB0E00042804D3FFE7DA
:1038400003208DF83700F3E1ECE702F0A5FAFFF76B
:1038500043F80B90FFE702F0AFFA00280ED0FFE725
:10386000FFF73AF8DDF82CE0A0EB0E00032804D3B4
:10387000FFE703208DF83700DAE1ECE7FFE7FFE729
:103880000C980068400700287BD5FFE740F2004015
:10389000C5F600000068C00500281ED4FFE7FFF74A
:1038A000A7F9FFF719F80B90FFE740F20040C5F6C3
:1038B00000000068C00500280ED4FFE7FFF70CF8F1
:1038C000DDF82CE0A0EB0E00032804D3FFE7032073
:1038D0008DF83700ACE1E8E7FFE7FFE70C98806878
:1038E000012803D1FFE702F01FFA0FE00C9880686F
:1038F000052805D1FFE702F01FFA02F015FA04E0EF
:1039000002F002FA02F008FAFFE7FFE7FFE70C987F
:10391000806800281AD0FFE7FEF7DEFF0B90FFE774
:1039200002F01AFA002810D1FFE7FEF7D5FFDDF804
:103930002CE0A0EB0E0041F2893E704504D3FFE776
:1039400003208DF8370073E1EAE719E0FEF7C4FFC2
:103950000B90FFE702F000FA002810D0FFE7FEF717
:10396000BBFFDDF82CE0A0EB0E0041F2893E704574
:1039700004D3FFE703208DF8370059E1EAE7FFE7BA
:10398000FFE70C980068400600283AD5FFE70C983E
:10399000806A00281AD0FFE702F048F9FEF79CFF82
:1039A0000B90FFE702F04AF900280ED1FFE7FEF77F
:1039B00093FFDDF82CE0A0EB0E00032804D3FFE713
:1039C00003208DF8370033E1ECE719E002F026F927
:1039D000FEF782FF0B90FFE702F030F900280ED0CF
:1039E000FFE7FEF779FFDDF82CE0A0EB0E000328DF
:1039F00004D3FFE703208DF8370019E1ECE7FFE778
:103A0000FFE70C98C06A002800F00E81FFE702F083
:103A1000CBF804900C20C5F60000006803900C98C9
:103A2000C06A022840F0D080FFE7039800F003004E
:103A30000C99096B884229D1FFE7039800F07000C8
:103A40000C99496B884221D1FFE7039800F4FE40AE
:103A50000C99896BB1EB102F18D1FFE7039800F494
:103A600078100C99C96B884210D1FFE7039800F0D9
:103A700060600C99096C884208D1FFE7039800F058
:103A800060400C99496C88426FD0FFE704980C287D
:103A900066D0FFE74FF0B04000684001002804D531
:103AA000FFE701208DF83700C2E002F011FAFEF7BF
:103AB00013FF0B90FFE74FF0B04000688001002833
:103AC0000ED5FFE7FEF708FFDDF82CE0A0EB0E00B7
:103AD000032804D3FFE703208DF83700A8E0EAE7C6
:103AE0000C20C5F60000016848F28C02C1F2C11238
:103AF00011400C9A136BD2F834C0D2F838E0D46B72
:103B000043EA0C0343EA0E232343D2F840C043EABE
:103B10000C03526C1A4311430160009002F0E0F96B
:103B20000098016841F080510160FEF7D5FE0B90CE
:103B3000FFE74FF0B0400068800100280ED4FFE797
:103B4000FEF7CAFEDDF82CE0A0EB0E00032804D33C
:103B5000FFE703208DF837006AE0EAE7FFE703E0BC
:103B600001208DF8370063E02DE04FF0B040006891
:103B70008001002826D4FFE702F0B2F940F20C0ED3
:103B8000C5F6000EDEF8000040F08050CEF80000D0
:103B9000FEF7A2FE0B90FFE74FF0B04000688001F7
:103BA00000280ED4FFE7FEF797FEDDF82CE0A0EB2F
:103BB0000E00032804D3FFE703208DF8370037E019
:103BC000EAE7FFE7FFE72EE004980C2826D0FFE79E
:103BD00002F07EF9FEF780FE0B90FFE74FF0B04059
:103BE0000068800100280ED5FFE7FEF775FEDDF8BE
:103BF0002CE0A0EB0E00032804D3FFE703208DF890
:103C0000370015E0EAE70C20C5F6000001684FF622
:103C1000FC72CEF6FE621140016003E001208DF8D7
:103C2000370005E0FFE7FFE700208DF83700FFE7EA
:103C30009DF837000EB010BD83B001460190009191
:103C4000FFE7019890F82000012804D1FFE7022047
:103C50008DF80B002DE00198012180F82010FFE77E
:103C6000FFE70198022180F82110FFE70198006822
:103C7000CA2141620198006853214162FFE701981F
:103C80000068816841F020018160FFE701980068C9
:103C9000FF214162FFE70198012180F82110FFE731
:103CA0000198002180F82010FFE700208DF80B001C
:103CB000FFE79DF80B0003B07047000080B58AB0A5
:103CC00013468C46864608900791069240F23000D3
:103CD000C2F200000068400944F6D351C1F262010B
:103CE000A0FB010189094FF47A72514305910493B5
:103CF000CDF80CC0CDF808E00190FFE7089890F8E7
:103D00002000012804D1FFE702208DF82700CBE036
:103D10000898012180F82010FFE7FFE708980221AA
:103D200080F82110FFE708980068CA2141620898CE
:103D3000006853214162FFE70898006880684005E9
:103D4000002828D5FFE7FFE705980138059005987A
:103D5000002814D1FFE7FFE708980068FF214162BF
:103D6000FFE70898032180F82110FFE70898002159
:103D700080F82010FFE703208DF8270094E0FFE78C
:103D800008980068C06800F004000021B1EB900FB3
:103D9000DAD1FFE7FFE708980068816821F48061C5
:103DA000816008980068C06860F4906020F48060CA
:103DB00008990968C86040F23000C2F2000000684B
:103DC000400944F6D351C1F26201A0FB0101890907
:103DD0004FF47A72514305910090FFE7059801383E
:103DE00005900598002814D1FFE7FFE708980068C0
:103DF000FF214162FFE70898032180F82110FFE7C7
:103E00000898002180F82010FFE703208DF8270094
:103E10004AE0FFE708980068C06800F0040000214D
:103E2000B1EB900FDAD0FFE708980068816821F0C5
:103E3000070181600698089909688A6810438860BC
:103E4000079808990968486140F68000C5F60000A7
:103E5000016841F40021016040F60000C5F6000051
:103E6000016841F40021016008980068816841F40C
:103E70008041816008980068816841F480618160B8
:103E8000FFE708980068FF214162FFE708980121D9
:103E900080F82110FFE70898002180F82010FFE744
:103EA00000208DF82700FFE79DF827000AB080BDAD
:103EB00080B584B00146029002980028009104D198
:103EC000FFE701208DF80F0081E0029890F82100B3
:103ED000002808D1FFE70298002180F820100298FE
:103EE00000F07AF8FFE70298022180F8211002988A
:103EF0000068C06800F010000021B1EB101F53D122
:103F0000FFE7FFE702980068CA2141620298006853
:103F100053214162FFE7029803F09CF98DF80700F6
:103F20009DF80700002824D1FFE702980068816807
:103F30004FF6BF72CFF68F72114081600298016810
:103F40004268036980691A4310438A681043886095
:103F500002980168C06808610298016880680A696F
:103F600042EA00400861029803F0BCF98DF80700AE
:103F7000FFE79DF8070000280FD1FFE702980068CF
:103F8000C16C21F00301C164029801684269C069F3
:103F90001043CA6C1043C864FFE7FFE7029800684B
:103FA000FF214162FFE703E000208DF80700FFE7F3
:103FB0009DF80700002805D1FFE70298012180F84D
:103FC0002110FFE79DF807008DF80F00FFE79DF82F
:103FD0000F0004B080BD000080B598B00146179076
:103FE00003A8502202911146FCF70EF917980068B9
:103FF00042F60001C4F20001884225D1FFE74FF4E8
:10400000006003904FF48070139003A8FEF7FAFD50
:10401000002803D0FFE7FEF72DF8FFE701F092FD3F
:104020004FF4806001F0B4FB03204FF0000E0190CC
:1040300071467246FEF7A6FD0198FEF78BFD1798B4
:10404000FFF7FAFD0090FFE718B080BD80B584B09F
:104050000146029000200190029800684FF65F72BE
:10406000C0F20102C2600091FEF736FC0190FFE74A
:1040700002980068C068800600280FD4FFE7FEF7AA
:104080002BFCDDF804E0A0EB0E00B0F57A7F04D93C
:10409000FFE703208DF80F0004E0E9E700208DF82A
:1040A0000F00FFE79DF80F0004B080BD80B582B01F
:1040B000014601900198009103F08EFE02B080BD90
:1040C00084B00A4603460390ADF80A1001920093AB
:1040D00004B0704782B001460190009102B0704771
:1040E00082B001460190009102B0704782B0014653
:1040F0000190009102B0704782B00146019000919A
:1041000002B0704780B592B00146119011980068D6
:10411000C06910901198006800680F9011980068AD
:1041200080680E90109840F60F0210400D900D9888
:10413000002801911DD1FFE79DF84000800600286E
:1041400016D5FFE79DF83C008006002806D4FFE75F
:104150009DF83B00C00600280AD5FFE71198406F84
:10416000002804D0FFE71198416F8847FFE7A1E2DC
:10417000FFE70D98002800F01481FFE70E98012159
:10418000C1F20001084209D1FFE70F9840F2201167
:10419000C0F20041084200F00481FFE79DF84000B2
:1041A000C007002812D0FFE79DF83D00C007002897
:1041B0000CD0FFE711980068012101621198D0F836
:1041C000901041F00101C0F89010FFE79DF8400009
:1041D0008007002812D5FFE79DF83800C0070028A7
:1041E0000CD0FFE711980068022101621198D0F805
:1041F000901041F00401C0F89010FFE79DF84000D6
:104200004007002812D5FFE79DF83800C0070028B6
:104210000CD0FFE711980068042101621198D0F8D2
:10422000901041F00201C0F89010FFE79DF84000A7
:104230000007002819D5FFE79DF83C0080060028FC
:1042400007D4FFE70E980121C1F2000108420CD00B
:10425000FFE711980068082101621198D0F89010CA
:1042600041F00801C0F89010FFE79DF841000007F9
:10427000002813D5FFE79DF83F00400700280DD523
:10428000FFE7119800684FF4006101621198D0F8BF
:10429000901041F02001C0F89010FFE71198D0F87D
:1042A000900000287CD0FFE79DF8400080060028A1
:1042B00016D5FFE79DF83C008006002806D4FFE7EE
:1042C0009DF83B00C00600280AD5FFE71198406F13
:1042D000002804D0FFE71198416F8847FFE7FFE708
:1042E0001198D0F890000C9011980068806800F048
:1042F0004000402806D0FFE79DF8300010F0280F5E
:1043000044D0FFE7119804F00DF911980068806817
:104310004006002835D5FFE7FFE7FFE71198006862
:1043200050E8020F20F040000B90FFE70B98119926
:10433000096841E80202002AF0D1FFE7FFE711987F
:10434000D0F88000002817D0FFE71198D0F880003F
:1043500048F2E131C0F6000181631198D0F8800085
:10436000FDF7F4FE002806D0FFE71198D0F8800092
:10437000816B8847FFE703E01198FFF7BDFEFFE779
:1043800003E01198FFF7B8FEFFE708E01198FFF788
:10439000B3FE11984FF0000EC0F890E0FFE7FFE782
:1043A00088E11198C06E012840F02381FFE79DF855
:1043B0004000C006002840F11C81FFE79DF83C004A
:1043C000C006002840F11581FFE711980068102110
:1043D00001621198006880684006002840F1A780BB
:1043E000FFE71198D0F8800000684068ADF82A0017
:1043F000BDF82A0000287DD0FFE7BDF82A001199FA
:10440000B1F85C10884275DAFFE7BDF82A0011990F
:10441000A1F85E001198D0F880000068006880065E
:1044200000285AD4FFE7FFE7FFE71198006850E83B
:10443000000F20F480700990FFE70998119909682E
:1044400041E80002002AF0D1FFE7FFE7FFE7FFE7BE
:104450001198006850E8020F20F001000890FFE773
:1044600008981199096841E80202002AF0D1FFE793
:10447000FFE7FFE7FFE71198006850E8020F20F020
:1044800040000790FFE707981199096841E8020288
:10449000002AF0D1FFE7FFE711982021C0F88C1027
:1044A00011980021C166FFE7FFE71198006850E806
:1044B000000F20F010000690FFE706981199096898
:1044C00041E80002002AF0D1FFE7FFE71198D0F899
:1044D0008000FDF7D9FD0090FFE7119802210167E8
:1044E0001198B0F85C10B0F85E20891A89B2FFF715
:1044F000E7FD1BE0BDF82A001199B1F85C10884275
:1045000013D1FFE71198D0F880000068006880069A
:10451000002809D5FFE71198022101671198B0F82A
:104520005C10FFF7CDFDFFE7FFE7FFE7C2E0119862
:10453000B0F85C10B0F85E00081AADF816001198DB
:10454000B0F85E00002853D0FFE7BDF81600002841
:104550004ED0FFE7FFE7FFE71198006850E8000F33
:1045600020F490700490FFE704981199096841E8DD
:104570000002002AF0D1FFE7FFE7FFE7FFE711980D
:10458000006850E8020F4FF6FE71CEF6FF7108404A
:104590000390FFE703981199096841E80202002A95
:1045A000EDD1FFE7FFE711982021C0F88C1011989A
:1045B0000021C16611984167FFE7FFE71198006885
:1045C00050E8000F20F010000290FFE702981199C8
:1045D000096841E80002002AF0D1FFE7FFE71198DF
:1045E000022101671198BDF81610FFF769FDFFE77A
:1045F00060E09DF84200C00600280FD5FFE79DF857
:104600003A004006002809D5FFE7119800684FF4EA
:10461000801101621198FFF769FD4BE09DF84000A1
:104620000006002816D5FFE79DF83C00000600288C
:1046300006D4FFE79DF83A00000600280AD5FFE7F8
:104640001198806F002804D0FFE71198816F884788
:10465000FFE72FE09DF84000400600280AD5FFE75D
:104660009DF83C004006002804D5FFE7119803F0B0
:10467000ABFF1FE09DF84200000600280AD5FFE7C7
:104680009DF83F004006002804D5FFE71198FFF78A
:1046900027FD0FE09DF84300C00700280AD0FFE780
:1046A0009DF83F000006002804D5FFE71198FFF7AA
:1046B00011FDFFE712B080BD80B58AB013468C466D
:1046C000864608900791ADF81A200898D0F888001F
:1046D00020280493CDF80CC0CDF808E077D1FFE78F
:1046E0000798002805D0FFE7BDF81A00002804D17C
:1046F000FFE701208DF827006DE00798089908650D
:10470000BDF81A000899A1F85400BDF81A000899DC
:10471000A1F8560008980021C0F8901008982121AF
:10472000C0F888100898C06F002835D0FFE70898B7
:10473000C06F48F28941C0F60001C1620898C06F9D
:1047400048F20951C0F6000101630898C06F48F2B1
:104750000541C0F6000141630898C06F00218163E4
:1047600008980168026DC06F2831BDF81A300191B8
:104770001146019AFDF7FCFD00280CD0FFE70898D0
:104780001021C0F8901008982021C0F8881001204E
:104790008DF827001FE0FFE70898006840210162BC
:1047A000FFE7FFE70898006850E8020F40F080003C
:1047B0000590FFE705980899096841E80202002A78
:1047C000F0D1FFE7FFE700208DF8270003E002208B
:1047D0008DF82700FFE79DF827000AB080BD000094
:1047E00080B584B0014603900398006848F2000247
:1047F000C4F2000290420291019018D0FFE743F604
:104800000000C4F201000199814220D1FFE740F28B
:104810002C10C2F200000068002807D0FFE740F229
:104820002C10C2F2000000688047FFE710E040F261
:104830002810C2F200000068002807D0FFE740F20D
:104840002810C2F2000000688047FFE700E0FFE7A1
:1048500004B080BD82B001460190009102B0704763
:1048600070470000704700007047000080B50420CA
:10487000002101F0BBFF40F28800C2F20000006896
:10488000804780BD80B584B0EFF31080019001981F
:104890000090EFF3108072B6029040F60040C5F62B
:1048A0000000202100F0C0FF00980390039880F3DF
:1048B0001088FFF7DBFF04B080BD000080B500F07A
:1048C00023F840F60040C5F60000012100F080FF0B
:1048D00080BD000080B584B0EFF310800190019896
:1048E0000090EFF3108072B6029040F60040C5F6DB
:1048F0000000012100F0C0FF00980390039880F3AE
:10490000108804B080BD000080B582B0FFE740F29F
:10491000C410C2F2030001F0D9FC002826D1FFE741
:1049200040F2C410C2F2030001A901F0F3FC0198A7
:10493000407A0F2805D0FFE70198407A0E2805D16C
:10494000FFE70199022001F051FF04E001990520E1
:1049500001F04CFFFFE740F28C00C2F2000000685B
:1049600001990090084600998847D0E702B080BDC1
:1049700080B540F60040C5F60000012100F0AEFF12
:1049800080BD000080B582B04FF4801000F0C8FFF9
:104990004FF40070019001F09FF8019800F0D4FFEF
:1049A00040BF20BF01F0C4F802B080BD80B582B026
:1049B0004FF4801000F0D8FE40F60040C5F600002D
:1049C000019000F041FF019800F04AFF2C20FEF713
:1049D000C1F82D20FEF7BEF802B080BD80B586B0CC
:1049E000EFF31080039003980290EFF3108072B6FB
:1049F000049040F60040C5F60000082101900091A7
:104A000000F012FF02980590059880F3108840F29C
:104A10002410C2F20000006880470198009900F05D
:104A20005DFF06B080BD000080B586B001460290F3
:104A300040F60040C5F6000008220091114600F043
:104A40003BFF00281CD0FFE7029840F22411C2F27D
:104A500000010860EFF31080039003980190EFF3DA
:104A6000108072B6049040F60040C5F600000821A0
:104A700000F012FF01980590059880F3108809E076
:104A80000298804740F60040C5F60000082100F07B
:104A900025FFFFE706B080BD80B540F60040C5F6B3
:104AA0000000022100F08AFF00280DD0FFE740F649
:104AB0000440C5F600000068C0438007002803D505
:104AC000FFE700F06BF82FE040F60040C5F600006D
:104AD000012100F073FF00280DD0FFE740F60440ED
:104AE000C5F600000068C043C007002803D0FFE7F8
:104AF000FFF7E4FE17E040F60040C5F6000008218D
:104B000000F05CFF00280DD0FFE740F60440C5F63A
:104B100000000068C0430007002803D5FFE700F04D
:104B2000A7F8FFE7FFE7FFE780BD000080B584B08E
:104B3000EFF31080019001980090EFF3108072B6AF
:104B4000029040F60040C5F60000022100F06CFE25
:104B500000980390039880F3108800F003F804B0E5
:104B600080BD000080B582B040F20000C2F20300B8
:104B7000C168096807220190104601F037FE41F232
:104B80007810C2F2000000680199CA6812680090AB
:104B90001046009A904702B080BD000080B500F03A
:104BA00009F840F60040C5F60000022100F010FEB2
:104BB00080BD000080B582B0FFE740F2CC10C2F2A9
:104BC000030001F083FB002816D1FFE740F2CC1070
:104BD000C2F2030001A901F09DFB0199082001F038
:104BE00005FE41F27C10C2F20000006801990090BD
:104BF000084600998847E0E702B080BD80B584B0E0
:104C0000EFF31080019001980090EFF3108072B6DE
:104C1000029040F60040C5F60000022100F02CFE94
:104C200000980390039880F3108804B080BD0000C2
:104C300080B586B040F60040C5F600000221019024
:104C4000009100F04BFEEFF3108003900398029068
:104C5000EFF3108072B604900198009900F01CFEEA
:104C600002980590059880F3108806B080BD00007A
:104C700080B500F009F840F60040C5F600000821B4
:104C800000F0A6FD80BD000080B582B0FFE740F2D5
:104C9000DC10C2F2030001F019FB00280BD1FFE782
:104CA00040F2DC10C2F2030001A901F033FB0198CD
:104CB00003F0B8FAEBE702B080BD000080B584B025
:104CC000EFF31080019001980090EFF3108072B61E
:104CD000029040F60040C5F60000082100F0CCFD2F
:104CE00000980390039880F3108804B080BD000002
:104CF00080B540F60040C5F60000022100F0DCFD62
:104D000000280DD1FFE740F60440C5F6000000681A
:104D1000C0438003002803D5FFE7FFF707FF2FE01C
:104D200040F60040C5F60000082100F0C5FD00284F
:104D30000DD1FFE740F60440C5F600000068C0430F
:104D40000003002803D5FFE7FFF748FE17E040F611
:104D50000040C5F60000202100F0AEFD00280DD176
:104D6000FFE740F60440C5F600000068C04380023B
:104D7000002803D5FFE7FFF785FDFFE7FFE7FFE723
:104D800080BD0000B0B58FB09C4696460C460546E7
:104D90000A9009918DF82320079300208DF81A00BE
:104DA000EFF310800B900B980590EFF3108072B624
:104DB0000C90CDF810C0CDF80CE002940195FFE7FF
:104DC0009DF81A0000210528009110DCFFE79DF8EE
:104DD0001A0000EB400041F22821C2F2000101EB71
:104DE000C000007B002818BF01200090FFE700985A
:104DF000C007002806D0FFE79DF81A0001308DF8A3
:104E00001A00DDE79DF81A00062831D0FFE79DF86B
:104E10001A0000EB400041F22821C2F2000101EB30
:104E2000C0000122027305980D900D9880F3108840
:104E30000A989DF81A2002EB420201EBC2021061AF
:104E40009DF823009DF81A2002EB420201EBC202FA
:104E5000507307989DF81A2002EB420241F8320085
:104E60009DF81A000999087000208DF81B0008E0D1
:104E700005980E900E9880F3108801208DF81B0085
:104E8000FFE79DF81B000FB0B0BD000080B58CB0EF
:104E90000A4603468DF82700089105920493FFE720
:104EA00041F27040C2F200000168CA224A62006802
:104EB00053214162FFE742F60800C4F20000016896
:104EC00041F020010160006800F00700C0F104001B
:104ED00041F22421C2F20001087042F61000C4F22F
:104EE0000000006800F4FE004FF47E410A910A9928
:104EF0000029039004D1FFE720208DF82F0005E062
:104F00000A98B0FA80F08DF82F00FFE79DF82F0087
:104F1000039921FA00F0013040F28402C2F200024B
:104F2000107042F61000C4F2000000686FF3DF302A
:104F3000013041F28C13C2F2000318801888013846
:104F400012785043A0F5A07041F22422C2F2000270
:104F50001278D040069006984FF6FF72904208D320
:104F6000FFE740F24410C2F200004FF6FF710180EB
:104F700006E0069840F24411C2F200010880FFE703
:104F80004FF40020029000F099FD029800F06CFDB3
:104F90009DF82700002853D1FFE741F22520C2F2F7
:104FA00000000121017041F27410C2F200004FF0C4
:104FB000FF31016000208DF81F00FFE79DF81F0002
:104FC000052813DCFFE79DF81F0000EB400041F2CD
:104FD0002821C2F2000101EBC00000210173FFE7AC
:104FE0009DF81F0001308DF81F00E7E740F2161012
:104FF000C2F200000621017041F27040C2F20000CE
:1050000001688A6822F480628A600168C96861F474
:10501000906121F480610268D16040F60C01C5F610
:1050200000014FF400220A60032101900846FDF7B9
:1050300079FD019801688A6842F480428A6011E033
:1050400041F27040C2F200000068C06800F4806065
:105050000021B1EB902F04D0FFE70320FDF786FD80
:10506000FFE7FFE7FFE741F27040C2F2000000688F
:10507000FF214162FFE70320002200900099FDF725
:1050800081FD0098FDF766FD0CB080BD80B586B04F
:1050900013468C46864605908DF8131003920398AC
:1050A0000293CDF804C0CDF800E0804706B080BD83
:1050B00080B58AB0EFF31080049004980090EFF36D
:1050C000108072B60590FFE741F27040C2F2000016
:1050D0000168CA224A62006853214162FFE741F237
:1050E0007040C2F200000068816821F48061816034
:1050F00040F21610C2F2000000788DF807009DF80B
:10510000070000EB400041F22821C2F2000101EB50
:10511000C000007B022876D1FFE79DF8070000EB76
:10512000400041F22821C2F2000151F83000039002
:105130009DF8070000EB400001EBC0000069029001
:1051400041F22520C2F20000007800284FD0FFE78E
:105150009DF8070000EB400041F22821C2F2000157
:1051600001EBC000407B012824D1FFE79DF8070038
:10517000012103F0F7FD00980690069880F310884F
:105180009DF8070000EB400141F2282EC2F2000E0C
:105190000EEBC101496800F069F8FFE741F2704089
:1051A000C2F200000168CA224A62006853214162CB
:1051B000FFE715E000980790079880F310889DF8A6
:1051C000070000F0E1F8FFE741F27040C2F2000092
:1051D0000168CA224A62006853214162FFE7FFE783
:1051E00002989DF80710039AFFF750FF0AE002F0BB
:1051F000C3F8DDF800E0CDF820E0DDF820E08EF324
:105200001088FFE727E0FFE741F27040C2F200009C
:105210000068C06800F004000021B1EB900F01D1DC
:10522000FFE7F1E741F27040C2F200000168C9688F
:1052300061F4906121F480610068C16040F60C0067
:10524000C5F600004FF4002101600098099009980C
:1052500080F31088FFE7FFE741F27040C2F20000E0
:105260000068FF214162FFE70AB080BD80B58AB0C7
:105270000A4603468DF81B0005919DF81B0000EBC4
:10528000400041F22821C2F2000101EBC000007B86
:1052900002280292019305D1FFE79DF81B0000F060
:1052A00073F8FFE7EFF31080079007980390EFF390
:1052B000108072B608900320FDF740FCFFE741F232
:1052C0007040C2F200000168CA224A62006853219D
:1052D0004162FFE79DF81B0000EB400041F22821EE
:1052E000C2F2000101EBC0000222027305989DF892
:1052F0001B2002EB420201EBC202906005989DF870
:105300001B2002EB420201EBC20148609DF81B002A
:1053100005F036F9ADF8120040F21610C2F20000A6
:1053200000788DF8110041F27010C2F20000007890
:105330009DF81110884203D0FFE702F01DF80FE03E
:10534000BDF812009DF81B1001EB410141F228222B
:10535000C2F2000202EBC1018A68101A8860FFE7FE
:10536000FFE741F27040C2F200000068FF21416295
:10537000FFE70320FDF7EEFB03980990099880F3FF
:1053800010880AB080BD000080B586B001468DF857
:105390000B00EFF31080039003980190EFF310805F
:1053A00072B6049003200091FDF7C8FBFFE741F2BD
:1053B0007040C2F200000168CA224A6200685321AC
:1053C0004162FFE79DF80B0000EB400041F228210D
:1053D000C2F2000101EBC000007B02286BD1FFE7A5
:1053E0009DF80B00002103F0BDFC40F21610C2F244
:1053F000000000788DF80A009DF80A0006284BD1BD
:10540000FFE742F60800C4F20000006800F4806084
:105410000121B1EB902F10D1FFE7FFE741F270407F
:10542000C2F200000068C06800F004000121B1EB86
:10543000900F01D1FFE7F1E7FFE741F27040C2F2C0
:1054400000000068816821F480618160FFE741F21B
:105450007040C2F200000068C06800F00400002143
:10546000B1EB900F01D1FFE7F1E741F27040C2F2DA
:1054700000000168C96861F4906121F480610068EE
:10548000C16040F60C00C5F600004FF40021016039
:105490000320FDF747FB0DE041F27010C2F200005F
:1054A00000789DF80A10884203D0FFE701F064FFFE
:1054B000FFE7FFE7FFE7FFE741F27040C2F20000BD
:1054C0000068FF214162FFE70320FDF743FB0198DD
:1054D0000590059880F3108806B080BDB0B58CB0FB
:1054E0009C4696460C4605468DF82F000A91ADF86D
:1054F0002620089300208DF81F008DF81E009DF8CF
:105500002F0001460028CDF818C0CDF814E004940F
:105510000395029104D0FFE70298022817D02DE0EE
:10552000089840F22C11C2F20001086041F2944048
:10553000C2F2000043F60001C4F2010101600A99C1
:10554000BDF82620FFF7B8F88DF81F0017E008987F
:1055500040F22811C2F20001086041F2DC30C2F2D0
:10556000000048F20001C4F2000101600A99BDF890
:105570002620FFF7A1F88DF81F0000E0FFE79DF857
:105580001F0001460328019114D80199DFE801F0BA
:1055900002060A0E00208DF81E000CE001208DF896
:1055A0001E0008E002208DF81E0004E003208DF8A4
:1055B0001E0000E0FFE79DF81E000CB0B0BD00002B
:1055C000FFE7FEE77047000080B5FFF765FA80BD92
:1055D00080B5FFF78DFB80BD82B001460190019838
:1055E0000022026001984FF03F12426001983F2272
:1055F0008260009102B0704783B0014602900020A3
:1056000001900091FFE70198052817D8FFE702985D
:10561000019900EB810042F6CD11C0F60001416016
:105620000298019900EB810042F6ED11C0F60001ED
:10563000C161FFE7019801300190E4E703B07047D2
:1056400080B5502000F02CFA80BD000080B582B0FB
:1056500042F60000C4F20000019000F0B5FD002108
:10566000019800F0C7FD019800F0BAFD02B080BDBE
:10567000704700007047000084B001460390039813
:105680004822C5F600021368184310601068039A98
:105690001040029002980191009004B07047000001
:1056A00084B00146039003984C22C5F600021368AB
:1056B000184310601068039A1040029002980191FC
:1056C000009004B07047000084B001460390039836
:1056D0004C22C5F600021368184310601068039A44
:1056E0001040029002980191009004B070470000B1
:1056F00084B00146039003984C22C5F6000213685B
:10570000184310601068039A1040029002980191AB
:10571000009004B07047000084B0014603900398E5
:105720005022C5F600021368184310601068039AEF
:105730001040029002980191009004B07047000060
:1057400084B00146039003985022C5F60002136806
:10575000184310601068039A10400290029801915B
:10576000009004B07047000084B001460390039895
:105770005022C5F600021368184310601068039A9F
:105780001040029002980191009004B07047000010
:1057900084B00146039003985822C5F600021368AE
:1057A000184310601068039A10400290029801910B
:1057B000009004B07047000084B00A46034603908E
:1057C00002910298039988600192009304B0704797
:1057D00084B00A46034603900291029803998860B8
:1057E0000192009304B0704784B00A4603460390C8
:1057F000029102980399D1F804C040EA0C00486075
:105800000192009304B0704784B00A4603460390A7
:10581000029102980399D1F804C04CEA0040486014
:105820000192009304B0704784B00A460346039087
:10583000029102980399D1F804C04CEA00404860F4
:105840000192009304B0704782B001460190019824
:10585000026842F001020260009102B0704700004D
:1058600082B0014601900198026842F480320260E1
:10587000009102B07047000084B00A4603460390CE
:10588000029102980399D1F804C02CEA0000486004
:105890000192009304B0704784B00A460346039017
:1058A000029102980399D1F804C02CEA00404860A4
:1058B0000192009304B0704784B00A4603460390F7
:1058C00002910398C06802990840401AB0FA80F02B
:1058D00040090192009304B07047000084B00A466A
:1058E0000346039002910298000403998860019294
:1058F000009304B07047000084B001460390039801
:1059000040F24C12C5F6000213681843106010688C
:10591000039A1040029002980191009004B07047E1
:1059200084B001460390039840F25012C5F600027D
:105930001368184310601068039A10400290029890
:105940000191009004B0704782B001460190019827
:1059500040F6D402C5F600021368184310600091A7
:1059600002B0704784B00A46034603900291029841
:10597000039988610192009304B0704784B00A468D
:1059800003460390029102980399D1F814C040EAAB
:105990000C0048610192009304B0704784B00A463D
:1059A00003460390029102980399D1F814C04CEA7F
:1059B000004048610192009304B0704784B00A46E9
:1059C0000346039002910398C06902990840401A67
:1059D000B0FA80F040090192009304B070470000D3
:1059E00082B00146019040F28040C5F60000026896
:1059F00022F00702019B1A430260009102B0704737
:105A000082B00146019040F20810C5F6000002681D
:105A100022F0F002019B1A430260009102B070472D
:105A200042F20400CEF20400016841F0010101607D
:105A30007047000042F20400CEF20400016841F019
:105A4000020101607047000042F20000CEF2040043
:105A500000686FF31F30704742F20000CEF204007E
:105A60000068000C7047000082B001460190019868
:105A700040F68002C5F600021368184310600091DA
:105A800002B0704782B001460190019840F6900242
:105A9000C5F60002136818431060009102B0704709
:105AA00082B001460190019840F69002C5F60002CE
:105AB000136818431060009102B0704782B001462D
:105AC0000190019840F60002C5F6000213681843E1
:105AD0001060009102B0704782B0014601900198B9
