:020000040800F2
:10000000502500205101000871410008513E0008B0
:100010006D4100089D130008C9560008000000004B
:10002000000000000000000000000000F14E000889
:100030009918000800000000FD450008414F000825
:100040006B0100086B0100086B010008E546000821
:100050006B0100086B010008A1180008A91800082E
:100060006B0100086B010008B11800086B01000863
:100070006B0100086B010008E91700086B0100081C
:100080006B0100086B0100086B0100086B010008A0
:100090006B0100086B0100086B0100086B01000890
:1000A0006B0100086B0100086B0100086B01000880
:1000B0006B0100086B0100086B0100086B01000870
:1000C0006B0100086B0100086B0100086B01000860
:1000D00009530008113F00086B0100086B0100087C
:1000E0006B0100086B0100086B0100086B01000840
:1000F000593E00085D3E00086B0100086B010008D6
:100100006B0100086B0100086B0100086B0100081F
:100110006B0100086B0100086B0100086B0100080F
:100120006B0100086B010008F51700086B0100085F
:100130006B0100086B0100086B010008DFF80CD0B0
:1001400000F0C4FA00480047F16100085025002083
:100150000648804706480047FEE7FEE7FEE7FEE761
:10016000FEE7FEE7FEE7FEE7FEE7FEE7454F000895
:100170003D0100082DE9F05F0546002092469B46B0
:1001800088460646814640241BE0284641464746AD
:10019000224600F0E8F853465A46C01A914110D35F
:1001A00011461846224600F0CFF82D1A67EB0108D9
:1001B0004F4622460120002100F0C6F817EB000947
:1001C0004E41201EA4F10104DFDC484631462A4698
:1001D0004346BDE8F09F40EA01039B0703D009E0D6
:1001E00008C9121F08C0042AFAD203E011F8013B23
:1001F00000F8013B521EF9D27047D2B201E000F87C
:10020000012B491EFBD270470022F6E710B51346BA
:100210000A4604461946FFF7F0FF204610BD2DE9B7
:10022000FE4F81EA030404F0004421F000410094F1
:100230004FF0000B23F0004350EA01045ED052EA75
:1002400003045BD0C3F30A54C1F30A552C44A4F24F
:10025000F3340194A0FB0254C1F3130141F4801163
:10026000C3F3130343F4801301FB024400FB034E6A
:10027000840A970A44EA815447EA8357A4FB076833
:1002800002958D0A05FB07854FEA932C04FB0C545D
:100290002705029D4FEA065847EA1637B5EB0805D1
:1002A0006EEB070C870E920E47EA811742EA831223
:1002B000A7FB0201B6EB0B0164EB00042B0D43EA34
:1002C0000C335E1844EB1C50DA465146E7FB020142
:1002D000C5F313044FEA0B3343EA14534FEA0432D5
:1002E000019C43EA0603A4F10C040294009CCDE9AE
:1002F00000B400F057F803B0BDE8F08F00200146CD
:10030000F9E70EB540F2334102910021CDE9001129
:100310000A460B4600F046F803B000BD30B50B4668
:10032000014600202022012409E021FA02F59D4225
:1003300005D303FA02F5491B04FA02F52844151EF9
:10034000A2F10102F1DC30BD202A04DB203A00FAE0
:1003500002F1002070479140C2F1200320FA03F31C
:10036000194390407047202A04DB203A21FA02F01A
:100370000021704721FA02F3D040C2F120029140DF
:1003800008431946704710B5141E73F1000408DACB
:10039000401C41F1000192185B411A4301D120F049
:1003A000010010BD2DE9F04D92469B4611B1B1FA06
:1003B00081F202E0B0FA80F220329046FFF7C4FFEB
:1003C00004460F4640EA0A0041EA0B0153465A46EA
:1003D000084313D0114653EA010019D0C8F1400276
:1003E0005046FFF7C0FF05460E4650465946424666
:1003F000FFF7AAFF084305D0012004E02046394654
:10040000BDE8F08D0020054346EAE0762C433743F3
:100410000A986305E40AA0EB08000022FD0A44EAFA
:1004200047540A3002D500200146E9E701051019BA
:100430006941DDE9084500196941BDE8F04DA2E7D1
:100440002DE9FE4F804681EA0300C00F0C46009064
:1004500021F0004123F00045B8EB0200A94105D28C
:100460004046214690461C460B46024623F000407B
:10047000104347D0270DC7F30A00C3F30A51029077
:10048000401A019040286BDAC3F3130040F4801B3C
:100490000098924620B10023D2EB030A63EB0B0BCA
:1004A00001985946C0F140025046FFF74DFF0646FD
:1004B0000D4650465946019A00F020F910EB08000D
:1004C0006141002487EA115284EAE7731A4340D05D
:1004D000009A62B3019A012A4FEA075215DC001B09
:1004E00061EB02014FF0004202EA0752CDE90042FF
:1004F000001C41F5801132462B46FFF753FF03B035
:10050000BDE8F08F40462146F9E7001B61EB020190
:10051000001C41F5801300185B412018A2F500175C
:1005200047EB030140EAD570B6196D4111E06D0843
:100530004FEA360645EAC0754FEA0752001B61EBE9
:100540000201001C41F5801149084FEA30000019F2
:10055000514132462B4603B0BDE8F04FFFF713BFC1
:100560000098012240000023D0EB020263EBE0730D
:10057000009821464FEAE074B8EB000061EB0401FB
:10058000E9E783F000435BE781F0004158E72DE99C
:10059000F04D81EA030404F0004B21F000451446BD
:1005A0004FF0000A23F0004150EA050220D054EA3F
:1005B00001021DD0C5F30A570246C5F31303C1F368
:1005C0001300C1F30A5640F4801543F48013A7EBDF
:1005D0000608101BD64608F2FD3873EB050002D35F
:1005E00008F1010801E092185B41B8F1000F03DA4D
:1005F00000200146BDE8F08D00204FF48011064632
:1006000084460EE0171B73EB050705D3121B63EB43
:10061000050306434CEA010C49084FEA30009218E2
:100620005B4150EA0107EDD152EA030012D082EAA1
:10063000040083EA0501084305D0101BAB4106D234
:100640000122002306E000224FF0004302E06FF099
:10065000010253101AEB06004CEB085110EB0A0094
:1006600041EB0B01BDE8F04DFFF78DBEC1F30A521F
:10067000C1F3130140F2FF3341F480119A4202DAD0
:1006800000200146704740F233439A42A2F23342BF
:1006900002DC5242FFF767BEFFF756BE30B5041EBC
:1006A00071F1000404DB4FF00044404264EB0101AF
:1006B000141E73F1000405DB1C464FF00043524248
:1006C00063EB0403994208BF904230BD1CB5094852
:1006D0000090094801900546009C06E0E06840F063
:1006E000010394E8070098471034AC42F6D3FFF7B3
:1006F00029FD0000DC7F00081C800008202A06DBA2
:10070000CB17203A41FA02F043EAE07306E041FADF
:1007100002F3D040C2F120029140084319467047CD
:1007200030B58C1810F8012B12F00F0301D110F81E
:10073000013B120906D110F8012B03E010F8015B10
:1007400001F8015B5B1EF9D101E001F8013B521E8B
:10075000FBD1A142E6D3002030BD000010B588B027
:1007600046F66C60C0F6000090E80E5044690191B6
:10077000018B807E02920393CDF810C0CDF814E077
:100780000694ADF81C108DF81E0004F0EBFC01A8D7
:1007900004F094F808B010BD2DE9F04186B001F0E6
:1007A0008DF801F095F840F69000C5F6000001685C
:1007B00041F48031016001F02BF846F6547240F6A6
:1007C000000340F200470021C0F60002C4F6000317
:1007D000C4F600074FF00008002500200491CDE981
:1007E0000211CDE9001104E0A68835430131262924
:1007F00014D002EBC104A679002EF7D052F8316074
:100800009E4207D0BE42EFD0B6F1904FEED1A688FF
:100810003043EBE7A68848EA0608E7E700214C27C3
:1008200002910121C5F60007019103210204039101
:1008300021D084B200943868694640F001003860E5
:10084000386800F0010005900598D7F8000140F0E5
:100850000100C7F80001D7F8000100F00100059081
:1008600005984FF0904001F095F94FF090402146E7
:10087000002201F051FA40F200442804C4F60004BA
:100880001FD0ADB200953868694640F0020038606C
:10089000386800F0020005900598D7F8000140F094
:1008A0000200C7F80001D7F8000100F0020005902F
:1008B0000598204601F06EF920462946002201F0F5
:1008C0002BFA5FEA084022D01FFA88F500953868B5
:1008D00004F5806440F0040038603868694600F030
:1008E000040005900598D7F8000140F00400C7F80F
:1008F0000001D7F8000100F004000590059820469B
:1009000001F048F920462946002201F005FA06B018
:10091000BDE8F08170470000B0B588B04468B4F815
:100920000B10A1F51241072900F2C580DFE801F0A4
:10093000047597C3AAB5719569460446084603F045
:10094000CBFF9DF800109DF801209DF8023047F282
:10095000E400C0F6000005F0F7FD9DF8041047F232
:10096000B200C0F6000005F0EFFD9DF80A109DF8FA
:100970000B209DF80C3047F2CE00C0F6000005F0C9
:10098000E3FD47F25F20C0F6000005F0DDFD2146E3
:10099000002448680794407B069401280594049439
:1009A00000F08180002840F0888047F2CC20C0F61B
:1009B000000006F049FAFFF7D1FE0F208DF8100075
:1009C0007F2042F200058DF81200CEF2040528685F
:1009D000040C47F23D20C0F60000214605F0B4FDAE
:1009E000ADF81C402C6847F21D206FF31F34C0F691
:1009F0000000214605F0A8FD04A8ADF81E4003F054
:100A00004FFF00F0A5F80120002104F08FFC08B092
:100A1000B0BDD4F80D1036A03AE047F29B11C0F6F5
:100A200000010446084605F08FFD646847F2ED10AA
:100A3000617BC0F6000005F087FD607B002807BFE2
:100A400047F21D30C0F6000047F2E620C0F6000075
:100A500008B0BDE8B04006F0F7B91CA01EE047F2B0
:100A60007E20C0F6000006F0EFF9D4F80D10D4F89F
:100A7000112047F20810C0F6000008B0BDE8B040F1
:100A800005F062BDD4F80D1047F23010C0F600003A
:100A900008B0BDE8B04005F057BD24A008B0BDE8DF
:100AA000B04005F051BD47F2BC10C0F600000D4645
:100AB00005F04AFD2C7008B0B0BD47F26910C0F6D1
:100AC000000005F041FD08B0B0BD00BF3E3E3D3D19
:100AD00020534843495F5355425F4556545F4E5635
:100AE0004D5F454E445F45524153450A0D0000009D
:100AF0003D3D3E3E534843495F5355425F45565442
:100B00005F4E564D5F53544152545F4552415345D9
:100B1000203A204E756D6265724F66536563746F3F
:100B20007273203D20256C640A0000003E3E3D3D6E
:100B300020534843495F5355425F4556545F4E56D4
:100B40004D5F454E445F57524954450A0D00000021
:100B500070B598B046F68860C0F6000090E84E0088
:100B6000D0E90454D0E906CE089600F1200605919C
:100B700006920793CDE909547ECECDE90BCE0DF157
:100B8000340C8CE87E0090F83A10008F8DF84E10EF
:100B9000ADF84C0040F22800C2F20300149041F27C
:100BA000ED10C0F60000159041F20520C0F60000DF
:100BB00014A905F093F90220012104F0B7FB46F2D5
:100BC0006912C0F600020420002104F0E5FB05A82C
:100BD00003F058FE30B10146E4A005F0B5FC00F08A
:100BE0006BFE03E00FF2BC3005F0AEFC0020ADF868
:100BF0005A0047F6B960C0F6000006F025F905F086
:100C000019FA38B1014647F20550C0F6000005F068
:100C10009BFC03E00FF2B43006F016F947F2805166
:100C2000C1F6FF710868421C0FD041F2B424496834
:100C3000C2F200042070000A6070080C0A0A2071D9
:100C4000080EA170E270607109E0002003F094FAD0
:100C500047F2AC04C0F60004002818BF0446002088
:100C60000621224605F0A6F838B1014647F2664053
:100C7000C0F6000005F068FC14E047F63950C0F6F5
:100C8000000006F0E1F86078A5786179227926788D
:100C9000E378CDE9005047F2E370C0F60000029619
:100CA00005F052FC607940F23801C2F2000108728E
:100CB000207947F294024872E078C0F60002887208
:100CC000A078C872607808732078487318201021C3
:100CD00005F070F838B1014647F21140C0F6000047
:100CE00005F032FC05E047F6F440C0F6000006F0DF
:100CF000ABF847F28402C0F600020820102105F08C
:100D000059F838B1014647F2BC30C0F6000005F092
:100D10001BFC05E047F6AF40C0F6000006F094F873
:100D20000120182105F01EF838B1014647F2C740EE
:100D3000C0F6000005F008FC05E047F68A50C0F652
:100D4000000006F081F804F093FF38B1014647F245
:100D50006250C0F6000005F0F7FB05E047F6D850FA
:100D6000C0F6000006F070F817AE0DF15E0514AB8A
:100D7000012000210722CDE9005604F0EFFC38B134
:100D8000014647F23250C0F6000005F0DDFB05E0F9
:100D900047F6B850C0F6000006F056F8BDF850000F
:100DA000BDF85E1091A600220723009604F080FF94
:100DB000BDF85000BDF85C100DF15A060022022368
:100DC000009604F075FF00200221022205F0F8F8D9
:100DD00038B1014647F21C60C0F6000005F0B4FBD4
:100DE00005E047F66260C0F6000006F02DF840F21C
:100DF0008C04C2F200040120207004F0D3FD38B14D
:100E0000014647F25660C0F6000005F09DFB05E084
:100E100047F68C60C0F6000006F016F840F20110AC
:100E2000C0F600004BF20721C4F801001020C0F208
:100E30000101002608226071A160CDE90020CDE902
:100E400002610120012101220023049604F01EFD0D
:100E500038B1014647F29350C0F6000005F074FB2C
:100E600005E047F6F950C0F6000005F0EDFFA07868
:100E700080B104F053FC38B1014647F2DD50C0F6B2
:100E8000000005F061FB05E047F63360C0F60000A6
:100E900005F0DAFF47F66F10C0F6000005F054FBCE
:100EA00003F0B6FF002084F880004FF6FF7041F297
:100EB0001502E082C0F600020120002104F06CFA65
:100EC00041F26D72C0F600020220002104F064FAC3
:100ED000062004F021FF38B1014647F6D800C0F6DD
:100EE000000005F031FB05E047F61C10C0F60000DD
:100EF00005F02AFB41F22450C2F2000000260670E1
:100F000041F22650C2F200000125057003F058F9A5
:100F100041F29D0304F18101C0F60003002000228C
:100F200002F0ACFC44F6397304F18201C0F6000310
:100F30000020002202F0A2FC43F6616304F1830169
:100F4000C0F600030020002202F098FC40F282006C
:100F5000C2F20000057040F28000C2F20000268359
:100F6000057000F09FF818B070BD00BF20204661EA
:100F7000696C2020203A20534843495F43325F4246
:100F80004C455F496E697420636F6D6D616E642CB2
:100F900020726573756C743A203078253032780A87
:100FA0000D0000002020537563636573733A20536E
:100FB0004843495F43325F424C455F496E69742044
:100FC000636F6D6D616E640A0D0000002020537523
:100FD00063636573733A206863695F7265736574F0
:100FE00020636F6D6D616E640000000050325053DD
:100FF0005256310003F01CB910B502200021002424
:1010000004F010FB41F22550C2F20000047010BD44
:101010007047000010B5012000F034F940F28C0454
:10102000C2F2000494F88000052808BF10BD04F047
:10103000DDFC002184F8801020B106A0BDE810403E
:1010400005F082BA0CA005F07FFA0DA0BDE81040B3
:1010500005F07ABA2A2A2053544F5020414456456D
:1010600052544953494E47202A2A20204661696C30
:101070006564200D0A0D000020200D0A0D000000FF
:101080002A2A2053544F5020414456455254495324
:10109000494E47202A2A20200D0A0D000120002158
:1010A00004F0C0BAF0B587B040F28200C2F200008E
:1010B000047840F2800040F28C07C2F20000C2F2D5
:1010C0000007057897F8810002F00EFE0120397EB6
:1010D00047F2A40287F88000002607F11900C0F645
:1010E00000020823002CCDE90063CDE90221CDE9FF
:1010F000040618BF4FF44874002D18BF4FF4FA656A
:10110000002021462A460023069604F0FBFB20B16E
:10111000014613A005F018FA02E01FA005F094FEA6
:1011200040F23801C2F200010E2004F07FFC48B109
:10113000014647F68300C0F6000007B0BDE8F04066
:1011400005F002BA1EA005F0FFF997F881004EF2F3
:101150004601C0F2010107B0BDE8F04002F0E4BC76
:101160003D3D3E3E206163695F6761705F736574FA
:101170005F646973636F76657261626C65202D20B0
:101180006661696C2C20726573756C743A203078D6
:101190002578200A000000003D3D3E3E2061636945
:1011A0005F6761705F7365745F646973636F7665B1
:1011B0007261626C65202D205375636365737300E3
:1011C0003D3D3E3E20537563636573733A2053740F
:1011D000617274204661737420416476657274692B
:1011E00073696E67200A0D0070470000012805D062
:1011F000002818BF70473F2004F0B6B83F2004F025
:10120000DFB8000010B504464068083003F042FE25
:10121000002818BF0120207010BD0000704700009A
:1012200070B586B000210491CDE90211CDE900111D
:101230004C21C5F600010A68044642F002020A6029
:10124000096840F21C0601F002000590059846F678
:101250000E70C0F6000030F81450012001900220FA
:10126000C2F20006039056F824006946009500F08B
:1012700091FC56F824002946002200F04DFD06B0EE
:1012800070BD000040F21C01C2F2000151F82020A4
:1012900046F60E71C0F6000131F81010104600221B
:1012A00000F03ABD40F21C01C2F2000151F82020CA
:1012B00046F60E71C0F6000131F8101010460122FA
:1012C00000F02ABD10B586B000220228CDE9032225
:1012D000CDE90122009218BF01282AD14C22C5F67F
:1012E0000002136843F008031360126802F008025A
:1012F0000592059A012929D000294BD146F608719B
:10130000C0F6000131F81010009100210191012177
:10131000029140F20C01C2F2000151F820000221BA
:101320000391694600F036FC012000F00DFC06B088
:1013300010BD0028DED14C22C5F60002136843F030
:1013400004031360126802F00402D1E746F6087144
:10135000C0F6000131F810100446009101210291FD
:1013600040F20C01C2F2000151F820204FF40411A8
:1013700001916946104600F00DFC46F60470C0F677
:10138000000004570F212046002200F0F5FD204602
:1013900000F0CEFD06B010BD70470000FEE7000073
:1013A000704700002DE9F04F83B0044640690F46B6
:1013B0002189994690460028834618BF8B460DD058
:1013C00061B9D4E900232669955D0136F31A38BF67
:1013D0003346D25C45EA022202F1020BD4E9033221
:1013E000002918BF88469A4201D2002203E06368B0
:1013F00012FA8BF29A1AB1FA81F14B0908EB430504
:1014000005FB09F191424FEA43060AD20022B2429B
:101410000ED80023B24212D81A46B8F1000F16D1E6
:101420001AE0B2FBF5F303FB1522D2B2B242F0D9B7
:10143000237FDB07134608BF0023B242ECD9227F8B
:101440009207324658BF1A46B8F1000F04D008443C
:1014500061681044884203D9002003B0BDE8F08FD2
:10146000B9F1000F0295009600F0A5804FEA182010
:101470004FF0000A019008E0A069B9F1010900F1FC
:1014800001004744A06100F096802069616810FA6D
:101490008BF2501A218938BF1046206199B9216812
:1014A00001F80080D4E900120130821A38BF0246E8
:1014B0000198531C885460686169181A01F102018F
:1014C00038BF1846616161680D1A454528BF454619
:1014D00006D2227F22B181421ED100268EB9CBE7EF
:1014E00021682A4608443946FEF775FE6069DDF832
:1014F00008B028446061A8EB05060020AA46002E2B
:10150000BAD021683246084407EB0A01FEF763FEB1
:10151000606930446061AFE7217FCA071FD1890746
:1015200040D52189002997D121682A0A014401F870
:10153000025C2168014401F8012C21682A46084414
:101540003946FEF748FED4E9050223682844A8EB93
:1015500005010132C4E90502080A19701AE021895F
:1015600041B92168FF22014401F8022C2168084496
:1015700000F8012C606921892844606121B10020B4
:1015800045464FF0000A0DE02068002580F80080F5
:10159000019841462268AA46507060690D460230A3
:1015A0006061022000992E4605EB010B00212161AC
:1015B000002EA6D160E72069009BD4E900121844F0
:1015C000821A38BF0246881803B0BDE8F08F0000C9
:1015D00080B5DDF808E084460020CCE90300CCE9C2
:1015E00005000EF00200CCE90012ACF80830002B28
:1015F00018BF012303EA500040428CF81CE080BD74
:101600002DE9F041D0F814C0BCF1000F56D002898A
:1016100096465AB9D0E9003EC4681E5D0134B4EB69
:101620000E0538BF25465B5D46EA032E037F03F0B7
:101630000303012B22D14FF6FF739E4508BF002AFA
:1016400008D0D0E90334A34218D9BAB14468E31AE8
:10165000934213D24368C668ACEB03052E4446613F
:1016600000269646C6604AB90668C3F1010435787B
:10167000012B88BF0124335D45EA032EB2FA82F2C2
:101680005409C268D0E9006802EB44034569B3EB32
:10169000080738BF1F460EEB440306EB070CEB1A96
:1016A000436107D0630073441A44B2EB080338BFA8
:1016B0001346C3608269013A826103E04FF0000C77
:1016C0004FF0000E6046002918BFA1F800E0BDE809
:1016D000F081000042694AB370B50389C2689C4634
:1016E00063B9D0E900CE551CB5EB0E041CF80260BE
:1016F00038BF2C461CF8045046EA052C067F06F03D
:101700000306012E22D11FFA8CF64FF6FF75AE426A
:1017100008BF002B0ED00669B24217D9B3B1466894
:10172000B61A9E423CBF9C4600220FE000204FF0BC
:10173000000C16E0D0E90026C6F101041578012E50
:1017400088BF0124125D45EA022C0022002BD0E95B
:10175000000308BF0232D31A38BF13461844BDE84D
:101760007040002918BFA1F800C0704710B582B0C2
:1017700040F28C00C2F2000090F88010022923D3BE
:1017800041F22654C2F20004217801291CD1002123
:10179000C08A21704FF4FA7C24213C220423CDF826
:1017A00000C004F035FB88B103464FF0010C47F24E
:1017B0008530C0F6000024213C2284F800C002B02D
:1017C000BDE8104004F0C0BE02B010BD47F2573073
:1017D000C0F6000024213C2202B0BDE8104004F015
:1017E000B3BE00007047000041F2DC20C2F20000EE
:1017F00000F0EAB841F23C30C2F2000000F0E4B878
:1018000002F0B2BC13460A460146002002F0F4BAC8
:1018100080B582B0FFF7F4FF40F2441040F264114B
:101820004FF0020CC2F20000C2F200014FF48052ED
:101830000023CDF800C0FFF7CBFE02B080BD000052
:1018400070B582B040F24414EFF31086EFF31080CD
:1018500072B6C2F200040DF1060520462946FFF7D4
:10186000CFFE20462946FFF735FF58B186F3108892
:10187000BDF8061041F64102C0F60002FFF7C2FFB4
:1018800002B070BD40F21800C2F2000001210170E8
:1018900086F3108802B070BD7047000070470000EA
:1018A000012000F06BB90000022000F067B90000D1
:1018B000102000F063B900007047000042F20400FD
:1018C000CEF20400016841F00101016070470000A0
:1018D00042F20400CEF20400016841F0020101600E
:1018E00070470000002804BF0120704790F82510C1
:1018F000022929D180B50168D0E910CE826C0B682D
:1019000023F00E030B60136823F4807313600A68DE
:1019100022F001020A600EF01C02012101FA02F21B
:10192000CCF80420D0E913325A60426D32B113680A
:1019300023F480731360D0E91623536080F82510D8
:101940000021BDE8804002E00421C16301210022A2
:1019500080F824200846704790F8251002292ED1DF
:1019600080B50168D0E910CE826C0B6823F00E03BD
:101970000B600B6823F001030B60116821F4807188
:1019800011600EF01C02012101FA02F2CCF80420D1
:10199000D0E913325A60426D32B1136823F4807378
:1019A0001360D0E91623536080F82510816B002264
:1019B000002980F8242018BF8847002080BD04211A
:1019C000C163012070470000B0B5D0E910C30268C0
:1019D000DCF8001003F01C030424D2F800E09C4063
:1019E0000C4218BF1EF004051BD102249C400C427F
:1019F00018BF1EF0020520D1D94009071CD51EF0E2
:101A0000080108BFB0BD116821F00E01116001216D
:101A100001FA03F2CCF80420C16380F82510416B71
:101A200018E01168890603D4116821F004011160DF
:101A3000CCF80440016B91B9B0BD1168890606D499
:101A4000116821F00A011160012180F82510CCF8FD
:101A50000440C16A0022002980F82420ECD0BDE8AF
:101A6000B040084790F824C0BCF1010F43D04FF0BC
:101A7000010C80F824C090F825C0BCF1010F37D1CB
:101A80002DE9F0414FF0020C80F825C04FF0000C1A
:101A9000C0F83CC0D0F800C000F14C0E9EE83040C9
:101AA000DCF80060BEF1000F26F00106CCF8006003
:101AB00065601CBFD0E916456560D0E910568468A2
:101AC00006F01C060127D0F8308007FA06F66E6093
:101AD000CCF80430102C0B4604BF13460A46B8F16C
:101AE000000FCCF80830CCF80C2006D00E210BE00B
:101AF000002180F8241002207047DCF8001021F04B
:101B00000401CCF800100A21DCF800201143CCF8C5
:101B10000010806C0168C90303D5016841F480712D
:101B20000160BEF1000F05D0DEF8000040F48070C7
:101B3000CEF80000DCF8000040F00100CCF8000016
:101B40000020BDE8F081000010B5044600F0EAF87E
:101B5000601C08BF10BDBDE8104000F0E9B80000EF
:101B6000012808BFFFF748BA022804D0102818BF80
:101B70007047FFF73FBAFFF74BBA000040F60C0181
:101B8000C5F600010A68024214BF08607047FFF7FB
:101B9000E7BF00002DE9F04F82B00E68002E00F084
:101BA000B78000F1200241F20005009200F13843B5
:101BB000C4F6000507224FEAB327A84208BF042253
:101BC000042F38BF4FEAB3220023002700250192DB
:101BD0000AE000BF0E68013536FA05F207F1020788
:101BE00003F1040300F09480012202FA05FC16EAD6
:101BF0000C0EEFD0D1F804A003220AF00309A9F1DA
:101C00000104012C02FA07F810D88468D1F80CB04E
:101C100024EA08040BFA07F2224382604268CAF3FE
:101C2000001422EA0C02AC4022434260B9F1030FD7
:101C30001FD0C2688C6822EA0802BC402243B9F176
:101C4000020FC26015D16FF00302009E02EA550B2D
:101C500056F80BC003F01C040F22D1F810A002FAB2
:101C600004F92CEA090C0AFA04F444EA0C0446F8D4
:101C70000B4002684C6822EA080204F00306BE40EA
:101C8000324314F4403F0260A4D040F2080825F02B
:101C90000302C4F2010852F808C003F00C040F2636
:101CA000A6402CEA060C019E06FA04F444EA0C064F
:101CB00042F8086040F60008C5F60008D8F800C0F1
:101CC0004E684CEA0E04F20258BF2CEA0E04C8F823
:101CD0000040D8F804C0B2024CEA0E0458BF2CEA07
:101CE0000E04C8F80440D8F880C0F2034CEA0E0491
:101CF00058BF2CEA0E04C8F88040D8F88420B603F8
:101D000042EA0E0458BF22EA0E04C8F8844061E794
:101D100002B0BDE8F08F00001823002A08BF282376
:101D2000C150704741F24850C2F20000006870474D
:101D300040F24600C2F200000078704740F24800CE
:101D4000C2F2000000687047002804BF01207047FD
:101D500010B590F8381019B9044600F02BF8204659
:101D600040F60041C5F6000100220A604FF03F1224
:101D70004A603F228A600A6841F6056342F0011218
:101D800041F609640A6000F118010622C0F600035A
:101D9000C0F6000441F8044F013A41F8183CF9D16B
:101DA00000210122416380F83820BDE81040084638
:101DB000704700005021C5F60001006801F53B6244
:101DC000904218BF704780B582B00868002240F486
:101DD000801008600868002100F4801001900198CC
:101DE0002C2000F0C9F82C2000F0A2F82D200021B2
:101DF000002200F0C1F82D2002B0BDE8804000F0C4
:101E000097B80000704700007047000040F246009D
:101E100041F24851C2F20000C2F2000100780A68A3
:101E2000104408607047000080B544F20000C5F619
:101E30000000016841F480710160032000F0C8F8DF
:101E4000002000F009F800281CBF012080BD00F030
:101E50002DF8002080BD0000B0B540F24605C2F26A
:101E60000005297801B3044600F014FC29784FF4EA
:101E70007A72B2FBF1F1B0FBF1F001F0F5F8014636
:101E80000F2C4FF001000ED8002918BFB0BD4FF045
:101E9000FF302146002200F06FF840F24801002098
:101EA000C2F200010C60B0BD0120B0BD80B582B0AF
:101EB0005020C5F600000168002241F400210160B5
:101EC0000068002100F40020019001982E2000F00D
:101ED00053F82E2002B0BDE8804000F029B8000081
:101EE000002848BF704700F01F01012202FA01F1EB
:101EF0001C2202EAD0004EF28022CEF20002815073
:101F000070470000002848BF704700F01F01012201
:101F100002FA01F11C2202EAD0004EF28012CEF247
:101F200000028150BFF34F8FBFF36F8F70470000E7
:101F3000002848BF704700F01F01012202FA01F19A
:101F40001C2202EAD0004EF20012CEF200028150B2
:101F500070470000002848BF704700F01F010122B1
:101F600002FA01F11C2202EAD0004EF20022CEF267
:101F7000000281507047000010B54EF60C5CCEF2A6
:101F8000000CDCF80030C3F3022E8EF00704042CA2
:101F900028BF0424BEF103034FF0FF3E0EFA04F401
:101FA00038BF0023A14399400EFA03F39A4311432B
:101FB00000F1604200F00F03090102F56442043BA6
:101FC0006344002848BF03F10C02117010BD0000EB
:101FD0004EF60C51CEF200010A684FF6FF031A408C
:101FE00060F30A2242F0806040F0FD7008607047A4
:101FF00040F20040C5F60000006800F4C060704781
:1020000040F20040C5F60000016841F480710160B3
:10201000704700002DE9F0470446007840F2880A36
:102020004006C5F6000A03D400204FF0000870E017
:10203000206B6FF0010101EBB05102290DD34FEA83
:10204000B05068B1012822D15AF87C0C4FF000083A
:1020500040F480304AF87C0C4DE04FF000084AE034
:102060004FF0B046306820F080603060FFF75AFED5
:10207000054600BF306807010CD5FFF753FE401B33
:102080000328F7D34FF00308002F07D533E04FF0B4
:10209000010830E04FF00008002F2CD45AF8780CDB
:1020A000D4E9011220F4FE4040EA01204AF8780CFD
:1020B0005AF8780C4FF0B04620F4781010434AF8E4
:1020C000780C306840F080603060FFF72BFE0546EA
:1020D0003068000106D4FFF725FE401B0328F7D324
:1020E0004FF00308B8F1000F05D160695AF8781C69
:1020F00008434AF8780CB8F1000F01D0404608E0D8
:10210000206BDAF8001021F440010843CAF80000FF
:102110000020617809073BD5DAF80800216C00F44B
:1021200040758D4233D0FFF76BFF45B3DAF80800F6
:10213000DAF8081020F4407041F48031CAF8081031
:10214000DAF8081021F48031CAF80810216C08432D
:10215000CAF80800DAF80800C00718D0FFF7E2FD57
:10216000054641F2893600BFDAF8080080070ED430
:10217000FFF7D8FD401BB042F6D3032008E0206CE7
:10218000DAF8081021F440710843CAF80800404604
:102190002168CA070CD18A0714D4CA061CD48A063F
:1021A00028D44A0734D40A0742D4C90550D4B3E02E
:1021B000A269DAF8003023F003031A43CAF80020BA
:1021C0008A07EAD5E269DAF8003023F440631A435B
:1021D000CAF80020CA06E2D5A26ADAF800304FF643
:1021E000FF7767EA02073B4043EA0242CAF8002051
:1021F0008A06D6D5E26ADAF800304FF6FF7767EA4A
:1022000002073B4043EA0242CAF800204A07CAD507
:10221000226ADAF800306FF47F2767EA12173B4032
:1022200002F47F4243EA0212CAF800200A07BCD532
:10223000626ADAF800306FF47F2767EA12173B40D2
:1022400002F47F4243EA0212CAF80020C90563D5AE
:10225000616BDAF80020B1F1806F22F0406242EA4F
:102260000102CAF8002009D0B1F1006F54D15AF828
:102270007C1C41F080714AF87C1C4DE04FF0B04668
:102280008046306820F080603060FFF74BFD0546E7
:10229000306807010AD5FFF745FD401B0328F7D337
:1022A0004FF00309002F05D5404631E04FF00009FB
:1022B000002FF9D45AF8780C616820F4FE4040EA07
:1022C0000120E2684AF8780C5AF8780C4FF0B046D2
:1022D00020F0606010434AF8780C306840F080606D
:1022E0003060FFF71FFD05463068000106D4FFF798
:1022F00019FD401B0328F7D34FF00309B9F1000F74
:10230000404605D161695AF8782C11434AF8781C87
:10231000B9F1000F18BF484621688A0527D5A26B7E
:102320006FF04043B2F1004F0FD072B1B2F1804F65
:1023300017460BD0DAF8003022F0805723F04043E4
:10234000CAF800306FF0406300E01746DAF800602A
:10235000B2F1C05F03EA060343EA0703CAF800309C
:1023600005D15AF87C2C42F080724AF87C2C490541
:1023700064D5E16BDAF80020B1F1805F22F04052C1
:1023800042EA0102CAF8002009D0B1F1005F55D13C
:102390005AF87C1C41F480314AF87C1C4EE04FF026
:1023A000B0468046306820F080603060FFF7BAFCAD
:1023B000054600BF306807010AD5FFF7B3FC401B94
:1023C0000328F7D34FF00309002F05D5404631E02D
:1023D0004FF00009002FF9D45AF8780C616820F406
:1023E000FE4040EA012022694AF8780C5AF8780C3D
:1023F0004FF0B04620F0604010434AF8780C306847
:1024000040F080603060FFF78DFC054630680001C9
:1024100006D4FFF787FC401B0328F7D34FF00309CE
:10242000B9F1000F404605D161695AF8782C114383
:102430004AF8781CB9F1000F18BF48462168CA0451
:1024400007D5626CDAF80C3023F440431A43CAF81B
:102450000C20890458BFBDE8F087D4E912125AF85D
:10246000643C23F030031A434AF8642C5AF8642C75
:1024700022F0030211434AF8641CBDE8F087000013
:102480002DE9F04381B0002800F0DD8044F200081F
:10249000C5F600080546D8F800000C4600F0070015
:1024A000814215D9D8F8000020F007002043C8F871
:1024B0000000FFF737FC0646D8F8000000F00700E0
:1024C000A04205D0FFF72EFC801B0228F4D99AE029
:1024D000287808278007C5F6000730D428788006BA
:1024E0003FD42878400651D42878400764D428780F
:1024F000000775D42878C00740F08980D8F800001C
:1025000000F00700844280F08E80D8F8000020F0B0
:1025100007002043C8F80000FFF704FC054600BF91
:10252000D8F8000000F00700A04200F07C80FFF720
:10253000F9FB401B02284FF00300F1D9A3E0A86883
:10254000396821F0F00108433860FFF7EBFB0646DD
:102550003868C003C2D4FFF7E5FB801B0228F7D917
:1025600051E06869D7F8001121F0F0010843C7F87D
:102570000001FFF7D7FB0646D7F800018003B0D46F
:10258000FFF7D0FB801B0228F6D93CE0A869D7F8FA
:10259000001121F00F0141EA1010C7F80001FFF708
:1025A000C1FB0646D7F80001C0039DD4FFF7BAFB74
:1025B000801B0228F6D926E0E868396821F4E0613A
:1025C00008433860FFF7AEFB064600BF386880035B
:1025D0003FF58DAFFFF7A6FB801B0228F6D912E06E
:1025E0002869396821F4605141EAC0003860FFF77A
:1025F00099FB0646386840033FF57CAFFFF792FB36
:10260000801B0228F6D9032001B0BDE8F08368687A
:102610004FF0B0410968D0B1032812D0022835D15B
:10262000890310D515E000F035F840F23001C2F210
:1026300000010860FFF782FB01B0BDE8F043FFF73F
:102640000BBC890105D4012001B0BDE8F0838907E6
:10265000F9D5396821F0030108433860FFF762FBC0
:10266000064641F2883900BF3868696800F00C00FE
:10267000B0EB810F3FF442AFFFF754FB801B48459E
:102680004FF00300F0D901B0BDE8F0834905DAD579
:10269000DFE700000C20C5F6000050F8042CC2F360
:1026A000810242F20041C0F2F401DFE802F0024A86
:1026B000111B4FF0B041096846F6147201F0F001A9
:1026C000B02928BFB0218908C0F60002515838E06F
:1026D0004FF0B0421268D2025CBF44F60001C0F273
:1026E000E8112EE0026802F00302022A19D0032A40
:1026F00009D14FF0B0421268D2025CBF44F600012B
:10270000C0F2E8110DE04FF0B041096846F61472CE
:1027100001F0F001B02928BFB0218908C0F60002FD
:10272000515802680368C2F306225143C3F30212F0
:102730000132B1FBF2F10268012303EB5272B1FBEB
:10274000F2F150F8040C3C2202EA900046F6C46212
:10275000C0F600021058B1FBF0F07047D8B32DE975
:10276000F0470446007840F294098006C5F6000957
:1027700040F1968059F88C0C10F00C0159F8880C37
:1027800005D00C292AD100F00300012826D1E069E8
:10279000002859D04FF0B041606A0A6802F0F00298
:1027A000B02A28BFB02290422DD901F029FF00287D
:1027B0004AD14FF0B042D4E90801136823F0F00386
:1027C0001943116059F8901C21F47F4141EA00201F
:1027D00049F8900C28E00120C0B27047E1694FF041
:1027E000B0473868A1B340F001003860FFF79AFAAB
:1027F000054600BF386880073CD4FFF793FA401BBA
:102800000228F7D932E00A6822F0F00202430A6097
:10281000216A59F8902C22F47F4242EA012149F8BA
:10282000901C01F0EDFE78B9FFF734FF40F248014B
:10283000C2F2000140F230020968C2F200021060E8
:102840000846FFF709FB30B34FF00108002023E0F2
:1028500020F001003860FFF765FA05463868800708
:1028600019D5FFF75FFA401B0228F7D94FF003088C
:10287000002011E04FF0B042D4E90801136823F0C2
:10288000F0031943116059F8901C21F47F4141EA8B
:10289000002049F8900C01200028404600F05082AA
:1028A0002078C00735D059F88C0C00F00C0159F88D
:1028B000880C082905D00C290AD100F00300032850
:1028C00006D1606808B101201FE04FF001081BE04D
:1028D0004FF0B04765683868B5F5803F20F4803028
:1028E00008BF00F580303860FFF71CFA002D054660
:1028F00033D000BF38688003E5D4FFF713FA401BDC
:102900006428F7D94FF0030800200028404600F063
:1029100017822078800758D559F88C0C00F00C01EC
:1029200059F8880C042905D00C291ED100F00300A9
:1029300002281AD1E068A0B1206959F8901C01263C
:1029400021F0FE4141EA006049F8900C39E000BFF7
:10295000FFF7E8F9401B6428D4D838688003F7D41F
:10296000B1E74FF0010800262BE0E1684FF0B047D7
:10297000386889B140F480703860FFF7D3F90546B4
:1029800038684005D8D4FFF7CDF9401B0228F7D9A5
:102990004FF00308002614E020F480703860FFF741
:1029A000C1F905464FF0010A386810F480608AEAE0
:1029B000902606D0FFF7B6F9401B0228F4D94FF055
:1029C0000308002E404600F0BB81216811F0180F6B
:1029D00000F0A0806269D9F80000AAB1C90626D427
:1029E00040F00100C9F80000FFF79CF9054600BF60
:1029F000D9F8000080075DD4FFF794F9401B022846
:102A00004FF00300F4D99BE120F00400C9F8000066
:102A1000FFF788F9054600BFD9F80000000733D555
:102A2000FFF780F9401B0328F6D9032088E18007CF
:102A300014D4D9F8000040F00100C9F80000FFF7F5
:102A400071F90546D9F80000800707D4FFF76AF945
:102A5000401B02284FF00300F4D971E1D9F80000BF
:102A600040F00400C9F80000FFF75CF9054600BF1C
:102A7000D9F8000000072FD4FFF754F9401B0328B2
:102A80004FF00300F4D95BE1D9F8000020F0010019
:102A9000C9F80000FFF746F9054600BFD9F8000065
:102AA000800737D5FFF73EF9401B02284FF003009F
:102AB000F4D945E1D9F8000020F00400C9F800007D
:102AC000D9F80000000725D5FFF72CF9401B032893
:102AD0004FF00300F4D933E1A069D9F8001021F4D4
:102AE000706141EA0020C9F80000D9F8000020F028
:102AF0000100C9F80000FFF715F90546D9F80000F4
:102B0000800707D5FFF70EF9401B02284FF003009E
:102B1000F4D915E12078400751D4207840066DD4CF
:102B2000E06A002800F0838059F88C2C59F8881C42
:102B3000022802F00C007CD1226B01F003039342C7
:102B400040F08B80626B01F07003934240F085800F
:102B5000A26BC1F30623934240F07F80E26B01F445
:102B60007813934279D1226C01F06063934274D15F
:102B7000626C01F0604191426FD14FF0B046306815
:102B8000800100F1D880306840F08070306059F8E2
:102B9000880C40F0805049F8880CFFF7C3F80446D1
:102BA000306810F0007FC0F3406540F0C580FFF74B
:102BB000B9F8001B02284FF00300F1D9BDE0D9F8A5
:102BC0006C03C00510D4FFF71BFAFFF7ABF80546FE
:102BD000D9F86C03C00507D4FFF7A4F8401B0228FE
:102BE0004FF00300F4D9ABE0A56859F8040C052DAB
:102BF00063D0012D6AD140F001006FE0A16AD9F8DD
:102C00000400002945D040F00100C9F80400FFF796
:102C100089F80546D9F8040080073FF581AFFFF732
:102C200081F8401B02284FF00300F3D988E0002010
:102C300086E00C282AD04FF0B045286820F080703C
:102C40002860FFF76FF80446286880016AD5FFF70F
:102C500069F8001B0228F7D915E00C2816D04FF0B0
:102C6000B0463068400111D4306820F08070306088
:102C7000FFF758F805463068800165D5FFF752F830
:102C8000401B0228F7D90320002556E0012000252B
:102C900053E020F00100C9F80400FFF743F80546AF
:102CA000D9F8040080077FF53BAFFFF73BF8401BE6
:102CB00002284FF00300F3D942E040F0040049F845
:102CC000040C59F8040C40F0010007E020F001006A
:102CD00049F8040C59F8040C20F0040049F8040CDD
:102CE000FFF720F8002D054641F2883615D000BFC9
:102CF00059F8040C80073FF510AFFFF713F8401B9D
:102D0000B0424FF00300F3D91AE000BFFFF70AF812
:102D1000401BB0424FF0030012D859F8040C800752
:102D2000F4D4FAE659F8880C4FF6FC71CEF6FE6141
:102D3000084049F8880C01254046002D18BF0020A6
:102D4000BDE8F047C0B2704759F8880C48F28C01D2
:102D5000C1F2C11104F1300708408ECFD4E91065EB
:102D60000843104340EA032038433043284349F8DE
:102D7000880C4FF0B046306840F08070306059F8F1
:102D8000880C40F0805049F8880CFEF7CBFF0446D1
:102D9000306810F0007FC0F34065CDD1FEF7C2FF70
:102DA000001B0228F4D90320C7E7000090F8201088
:102DB00001294FF0020112D080F821100168CA22C7
:102DC0004A6253224A628A6842F020028A60FF22E5
:102DD0004A62012180F82110002180F82010084665
:102DE0007047000010B581B040F23003C2F200031A
:102DF000D3F800C044F6D353C1F26203ACFB033CEA
:102E00004FEADC2C4FF47A730CFB03FECDF800E0A4
:102E100090F820304FF0020C012B55D0012380F8A0
:102E2000203080F821C00468CA23636253236362A0
:102E3000A3685B0508D500BF009B013B0093009B86
:102E4000C3B3E3685B07F7D4A36823F48063A3608C
:102E5000E36863F4906323F48063E360CDF800E0FB
:102E6000009B013B0093009B23B3E3685B07F7D50E
:102E7000A3684FF0000C23F00703A360A3681A4374
:102E8000A260616140F60001C5F60001D1F8802022
:102E900042F40022C1F880200A6842F400220A604D
:102EA000A16841F48041A160A16841F48061A16002
:102EB000012102E003214FF0030CFF22626280F83F
:102EC0002110002180F82010604601B010BD0000E4
:102ED000F0B581B0A0B3044690F8210028B90020D5
:102EE00084F82000204600F085F8022084F82100B4
:102EF0002068C168C90625D4CA21416253214162B4
:102F0000C168490620D4C16841F08001C160FEF764
:102F100009FF2168C96849064CD4054600260427E4
:102F2000FEF700FF401BB0F57A7F84BF84F8217064
:102F300001262068C068400607D4012EF0D104E0C5
:102F400001264FE0002648E00026BEBB94E80F00B3
:102F50004FF6BF768768CFF68F7637408760276950
:102F60003943A76986683943314381600361016948
:102F700041EA02410161C16821F08001C1608168BC
:102F800089061AD44FF65F71C0F20101C160FEF7E5
:102F9000C9FE05462068C068800626D4FEF7C2FE3A
:102FA000401BB0F57A7FF5D90420012684F8210072
:102FB00086B904E000260EB9C8E7002656B9206895
:102FC0006169E269C36C114323F00303C364C36CFA
:102FD0001943C1642068FF214162002E04BF012013
:102FE00084F82100F0B201B0F0BD0026002EF1D12E
:102FF000E5E7000010B596B0044601A85021FDF7A2
:1030000003F9206842F60001C4F20001884201D0B1
:1030100016B010BD4FF4006001904FF48070119015
:1030200001A8FEF7F7FF002818BFFEF745FC58205F
:10303000C5F60000816B002241F400418163016804
:1030400041F4806101600068002100F48060159007
:1030500015980320FEF790FF0320FEF769FF204636
:10306000FFF7A4FE16B010BD411E0020B0EB116F9B
:103070001CBF012070474EF21002CEF200025160D8
:103080004EF62351CEF20001F0230B700721906021
:1030900011607047704700007047000070470000E3
:1030A000704700007047000070B5046840F62F03B9
:1030B000E2692168A6681340202B05D101F02003A6
:1030C00006F080555B1938D140F60F0313400CD041
:1030D0000123C1F2000306EA030C40F22013C0F200
:1030E00000430B4013EB0C032DD1C36ED50616D550
:1030F000012B14D111F0100311D010212162A1680D
:10310000490600F1FC80B0F85C10B0F85E20B0F821
:103110005E30002B18BF914240F05B8170BDD3023E
:1031200040F1CB8016F4800300F0C7804FF480118B
:103130002162BDE87040FFF7B3BF416F0029EDD0B9
:10314000BDE870400847D30718BF11F4807307D05B
:1031500001232362D0F8903043F00103C0F890308F
:10316000930706F0010E0AD5BEF1000F07D0022327
:103170002362D0F8903043F00403C0F89030530736
:103180000AD5BEF1000F07D004232362D0F8903097
:1031900043F00203C0F8903013070CD501F0200370
:1031A00053EA0C0307D008232362D0F8903043F091
:1031B0000803C0F8903013050BD511F0806308D0D8
:1031C0004FF400632362D0F8903043F02003C0F83E
:1031D0009030D0F89030002BA0D092060AD501F0A4
:1031E000200106F08052891804D0416F11B10446C5
:1031F000884720460168D0F89020896802F02802AC
:1032000001F04001891807D10446FFF74BFF002069
:10321000C4F8900070BD00BF016851E8001F02684B
:1032200021F4907142E80013002BF5D14FF6FE71A6
:10323000CEF6FF71026852E8022F03680A4043E8A5
:103240000226002EF6D1C16E012909D1016851E88C
:10325000001F026821F0100142E80013002BF5D195
:103260002021C0F88C100021C16602684167916876
:10327000490640F1A18000BF016851E8021F0268C1
:1032800021F0400142E80213002BF5D1D0F8801064
:10329000002900F0918045F2ED12C0F600020446CC
:1032A00008468A63FEF758FB00283FF437AFD4F88E
:1032B0008000816BBDE870400847130606D501F019
:1032C000800306F400069B1940F0B380530677D5BF
:1032D00011F0400374D000BF016851E8001F02687C
:1032E00021F0400142E80013002BF5D12021C0F865
:1032F000881000218167BDE8704000F003B9D0F864
:1033000080100A6851688BB2002B4AD0B0F85C601C
:10331000B34246D2A0F85E101168890635D400BFCA
:10332000016851E8001F026821F4807142E800132F
:10333000002BF5D1016851E8021F026821F001015C
:1033400042E80213002BF5D1016851E8021F026820
:1033500021F0400142E80213002BF5D12021C0F8F2
:103360008C100021C16600BF016851E8001F02688F
:1033700021F0100142E80013002BF5D1D0F88010A5
:1033800004460846FEF7AEFA204602210167B0F86F
:103390005C10B0F85E20891A89B2BDE87040FFF772
:1033A00079BEB0F85C1099427FF4B8AE126892060C
:1033B0007FF5B4AE022237E0BDE87040FFF772BE81
:1033C00013023DD511F080433AD0BDE87040FFF7BD
:1033D00065BE891A026852E8002F036822F49072D1
:1033E00043E80026002EF5D14FF6FE72CEF6FF72AE
:1033F000036853E8023F0668134046E80235002D93
:10340000F6D12022C0F88C200022C266426700BF9D
:10341000026852E8002F036822F0100243E80026F9
:10342000002EF5D1022289B20267BDE87040FFF795
:1034300031BE816F00293FF471AEBDE8704008478E
:10344000D2017FF56BAEB1F1FF3FC8BF70BDBDE8E3
:103450007040FFF721BE0000D0F88830202B09D142
:10346000944600294FF0010218BFBCF1000F04D1AF
:1034700010467047022210467047B0B50022212343
:103480000165A0F854C0A0F856C0C0F89020C0F85C
:103490008830C36F13B345F2F915C0F6000545F245
:1034A000C12445F2013E5D630568C0F60004C0F624
:1034B000000EC3E90B4E9A6305F128020446184634
:1034C0006346FEF7CFFA0146204639B11021C0F815
:1034D00090102021C0F8881001220EE001684022DF
:1034E0000A6200BF016851E8021F026841F08001D2
:1034F00042E80213002BF5D10022BDE8B04010468F
:1035000070470000006848F20001C4F200018842E0
:103510000BD043F60001C4F20101884218BF704786
:1035200040F22810C2F2000003E040F22410C2F280
:103530000000006800B100477047000070470000BD
:1035400070470000704700007047000040F28400A0
:10355000C2F2000000680047EFF31080EFF3108123
:1035600072B640F60441C5F600010A6822F0010275
:103570000A6080F31088704770B582B040F2C410C2
:10358000C2F2030000F0EAFCA0B940F2C41440F219
:103590008806C2F2030401ADC2F2000620462946A5
:1035A00000F0EAFC019831688847204600F0D6FC1C
:1035B0000028F3D002B070BD40F60840C5F6000008
:1035C0004FF480310160704781B040F25010C5F671
:1035D0000000016841F480110160016801F480116C
:1035E00000910099D0F8D01641F40071C0F8D016BF
:1035F00040F6D401C5F600010A6842F400720A6080
:1036000040BF20BFD0F8BC1241F40041C0F8BC124A
:1036100001B0704780B582B04FF2504040F6004193
:10362000CFF6FF70C5F600010A5842F480120A5026
:10363000085800F4801001900198086840F00100DB
:103640000860086840F4803008602C20FEF770FCA9
:103650002D2002B0BDE88040FEF76ABC10B540F6F0
:103660000444C5F60004A168090704D480474FF458
:103670000020606010BD40F22011C2F2000108601D
:10368000EFF31080EFF3108172B6216821F400216E
:10369000216080F3108810BD10B540F60444C5F6D3
:1036A0000004A069800706D52068800703D400F0D5
:1036B00027F8022013E0A069C00706D02068C007E1
:1036C00003D1FFF759FF012009E0A069000707D5E2
:1036D0002068000748BF10BD00F056F80820606061
:1036E00010BD000040F20000C2F20300C16841F2C8
:1036F0007811C2F200010968C0680068084700003C
:1037000070B582B040F2CC10C2F2030000F026FC8B
:10371000A0B940F2CC1441F27C16C2F2030401AD10
:10372000C2F200062046294600F026FC31680198C6
:103730008847204600F012FC0028F3D002B070BD8C
:10374000EFF31080EFF3108172B640F60441C5F636
:1037500000010A6822F002020A6080F310887047B4
:1037600040F60440C5F600004FF400314160EFF32D
:103770001081EFF3108272B6026822F40032026008
:1037800081F3108870470000B0B582B040F2DC10C1
:10379000C2F2030000F0E2FB80B940F2DC14C2F296
:1037A000030401AD2046294600F0E6FB019801F034
:1037B000D7FC204600F0D2FB0028F3D002B0B0BD09
:1037C000EFF31080EFF3108172B640F60441C5F6B6
:1037D00000010A6822F008020A6080F3108870472E
:1037E00010B540F60444C5F60004A06880075CBF2D
:1037F00020685FEA80301CD5A06800075CBF2068A5
:103800005FEA003024D5A06880065ABF20685FEACE
:10381000802010BDEFF31080EFF3108172B62168A5
:1038200041F40011216080F31088BDE81040FFF7DB
:103830008DBEEFF31080EFF3108172B6216841F472
:103840000031216080F31088BDE81040FFF74ABFC7
:10385000EFF31080EFF3108172B6216841F400217C
:10386000216080F3108840F22010C2F2000000684E
:1038700080474FF40020606010BD0000F0B541F2B9
:10388000242EEFF3108CEFF3108572B6C2F2000E07
:103890000EF10C05002400BF15F8186BAEB1013411
:1038A000062CF9D106250624062D11D004EB44047C
:1038B0000EEBC406012737738CF3108830610020AB
:1038C00072734EF834300D70F0BDE5B2062DEDD1B7
:1038D0008CF310880120F0BD2DE9F04141F26C48D5
:1038E000C2F20008D8F80010CA224A6253224A6283
:1038F00042F60802C4F20002136841F2202443F0A9
:10390000200313601368C2F2000403F00703C3F13D
:1039100004032370946840F28305C4F30644013421
:10392000C2F200052C70956841F288176FF3DF35FD
:103930006E1CC2F200073E804FF6C067CFF6FF77DD
:1039400015FB0477DBB227FA03F34FF6FE77BB4291
:1039500040F2401740F60002C2F20007C5F600022E
:1039600088BF4FF0FF333B80136843F4002313609C
:10397000D2F8803043F40023C2F8803030B1C868F8
:10398000400539D50320FEF7E5FA35E041F2212064
:10399000C2F200000123037041F27410C2F2000071
:1039A0004FF0FF33036041F224236FF01700C2F29F
:1039B000000300241F181830782887F82440F9D114
:1039C00040F21210C2F2000006230370886820F44F
:1039D00080608860C86860F4906020F48060C8608F
:1039E0004FF40020D0600320FEF77AFAD8F80000E8
:1039F000816841F480418160D8F80000FF21416274
:103A0000032003210022FEF7B7FA0320BDE8F041AE
:103A1000FEF78EBA104700002DE9F04141F26C47E5
:103A2000C2F20007EFF31085EFF3108072B63B6827
:103A3000CA20586253205862986841F2242220F428
:103A40008060986040F21210C2F200000478C2F266
:103A5000000204EB440102EBC1010E7B022E17D1E0
:103A600041F22123C2F20003D1F800800E691B78D5
:103A70000BB34B7B012B23D103789C4226D10278D8
:103A800041F27013C2F200031A704A7D027033E0F3
:103A9000D8684007FCD5D8684FF4002160F49060E6
:103AA00020F48060D86040F60C00C5F6000001608C
:103AB00085F3108833E000F017FE85F310882EE0C0
:103AC00085F31088204600F00FF91EE00B7D91F879
:103AD00015C091F815E003EB430302EBC303BCF1FF
:103AE000060F83F815E007D091F814E00CEB4C03B7
:103AF00002EBC30282F814E001220A73007885F316
:103B000010884968204600F00FF83868CA214162E1
:103B100053214162304621464246FFF77BFF386819
:103B2000FF214162BDE8F0812DE9F04381B041F20F
:103B30002426044600EB4000C2F2000606EBC00754
:103B4000387B0D46022802D1204600F0CDF8EFF375
:103B50001089EFF3108072B60320FEF7D3F941F21B
:103B60006C48C2F20008D8F80000CA214162532113
:103B70004162022040F2121E3873BD607D60C2F2C5
:103B8000000E9EF8000041F2701C0628C2F2000CE4
:103B900010D19EF800004FF0FF318CF80000062095
:103BA0008EF80040787541F27410C2F20000016096
:103BB00000227FE041F27412C2F20002106801306C
:103BC00017D042F62803C4F20003186885B200BF7C
:103BD000186881B28D420D46FAD1106888420AD227
:103BE00041F28810C2F2000000881268401A811861
:103BF00003E000220EE01068411A40F28300C2F296
:103C0000000041F220220078C2F2000212784843FC
:103C100020FA02F2B86810FA82F0B860BD689EF827
:103C2000000000EB400006EBC0008068A8420DD900
:103C30009EF800109EF80000814227D101EB410060
:103C400006EBC00000F1140379752CE040F212136A
:103C5000C2F20003197801EB410006EBC00313F830
:103C6000150F062806D000EB400006EBC000806868
:103C7000A842EFD91D78062D1EBF05EB450006EBC7
:103C8000C00004757D7539751C7013E001EB4100AF
:103C900006EBC00313F8140F00EB400506EBC50557
:103CA0006C75797538751C709EF800008CF80000F2
:103CB0008EF800409EF800009CF80010814204D16C
:103CC000B86891B2401AB86001E000F00DFDD8F874
:103CD0000000FF2141620320FEF72AF989F31088D2
:103CE00001B0BDE8F08300002DE9F04381B0044647
:103CF000EFF31089EFF3108072B60320FEF702F99C
:103D000041F26C48C2F20008D8F80000CA214162B2
:103D1000532141F22426416204EB4401C2F2000621
:103D200006EBC103194611F80C2F022A58D140F2B4
:103D30001212C2F20002177841F2701CBC42C2F2A9
:103D4000000C05D117788CF800705B7D13700FE0C4
:103D50001F7D5C7D5D7D07EB470706EBC707062CE3
:103D60007D7505D01B7D04EB440706EBC7073B754B
:103D700001230B701178062906D141F27411C2F2A9
:103D800000014FF0FF330B601178062922D142F673
:103D90000801C4F200010968490502D5C168490754
:103DA000FCD4816821F48061816000BFC16849074B
:103DB000FCD5C16861F4906121F48061C16040F676
:103DC0000C00C5F600004FF4002101600320FEF74F
:103DD00087F805E09CF80000884218BF00F084FCDA
:103DE000D8F80000FF2141620320FEF7A1F889F313
:103DF000108801B0BDE8F083022810D018BB40F253
:103E00002810C2F20000036048F20000C4F2000073
:103E100000F5384341F29040C2F200000CE040F25D
:103E20002410C2F20000036041F2D83048F20003CF
:103E3000C2F20000C4F20003036080B5FFF70CFB80
:103E4000BDE8804000E00020042828BF0020704723
:103E5000FEE7000070470000FFF71EBCFFF7C0BC84
:103E6000F0B581B040F28C04C2F2000494F88000F6
:103E7000411F012947D841F22655C2F200052E788C
:103E8000022821D3012E1FD10021E08A29704FF48E
:103E9000FA7724213C220423009701F0B9FF58B19E
:103EA00003460120287047F28530C0F60000242127
:103EB0003C2202F049FB07E047F25730C0F6000011
:103EC00024213C2202F040FB94F882002F7840F23B
:103ED0009911FFF729FE012E08BF002F13D041F2E0
:103EE0002552C2F2000211780120022928700AD856
:103EF00094F883004B1C4FF48061137001B0BDE84F
:103F0000F040FFF711BE01B0F0BD000070470000A7
:103F100041F2D830C2F20000FFF7C6B8006040603E
:103F200070470000EFF31082EFF3108372B603685E
:103F300048600B6001600B68596082F3108870471D
:103F4000EFF31082EFF3108372B6436808604B60A2
:103F500041604B68196082F310887047EFF310815D
:103F6000EFF3108272B6026881F31088101AB0FA6B
:103F700080F0400970470000EFF3108CEFF31083DE
:103F800072B603680B600068EFF31081EFF31083E3
:103F900072B60368426813600068426081F310885B
:103FA0008CF31088704700007047000070470000D5
:103FB00010B582B044F210009024C5F600004FF412
:103FC0000041C5F600040160606840010ED56068DC
:103FD000C0000BD4FEF714F8FEF712F8206840F486
:103FE00080302060206820F48030206054F8400C3D
:103FF0003F2140F4801044F8400C54F8400C00F489
:1040000080100190019840F60440C5F60000416020
:104010004161016841F47C110160016941F47C1146
:104020000161016841F03F010160016941F03F0118
:104030000161002000F0A0F858B14CF6FE21CCF64A
:10404000FE218079E160E16821F47C5141EA0020A1
:10405000E06002B010BD000010B588B040F69000DE
:10406000C5F600000168082441F05001016042F6E5
:104070002400C4F20000CA2101605321016050F8FD
:104080001C1CC5F6000421F0070140F81C1CFF2190
:104090000160206840F40040206001F03BF9D4F852
:1040A0007804042161F3020041F26C41C4F8780401
:1040B000C2F200010020FFF70FFCFCF76DFB0120AE
:1040C000012101F033F90020FDF7AAF80120FDF7E6
:1040D000A7F80220FDF7A4F80020FDF7E3F8002080
:1040E0000121FDF7EFF801200121FDF7EBF8022097
:1040F0000121FDF7E7F800F095FF46F2C142C0F656
:1041000000024020002101F047F940F2F810C2F20D
:104110000300009040F61510C0F60000019040F634
:104120001910C0F60000694602F034F940F204307C
:10413000C2F20300029040F21040C2F2030003906A
:1041400040F21C50C2F20300049040F23C50059033
:1041500002A800F0AFFF00F063FF08B010BD000040
:104160004FF0FF3001F03CB970470000FEE700005F
:10417000704700007047000047F2000CC1F6FF7C5A
:104180000CF57E73DA796345A3F1080102D082420F
:104190000B46F7D10831824218BF0021084670470C
:1041A00010B50446FCF717F8204610BD10B51346AD
:1041B000CAB219460446FCF720F8204610BD00009C
:1041C000B0B544F2D142C0F600020820002100241C
:1041D00001F0E2F841F26815C2F2000500202C70EF
:1041E000FDF750F847F6CF70C0F6000002F02CFE45
:1041F0004FF00110C5F80100B0BD000000780128A3
:1042000018BF704780B50020FDF73CF847F6CF7027
:10421000C0F6000002F018FE41F26810C2F2000081
:104220004FF00111C0F80110BDE880407047000058
:104230000820002101F0F6B9B0B50178032923D098
:1042400001290DD0002940F0858041F26810C2F2AA
:1042500000000121017047F64570C0F6000009E03A
:1042600041F26810C2F200000021017047F676703A
:10427000C0F6000002F0E8FD47F25B20C0F6000047
:10428000BDE8B04002F060B941680A786ABB49787D
:10429000012913D104460020FDF704F82EA002F0F6
:1042A000D3FD47F25B20C0F6000002F04DF941F269
:1042B00068112046C2F2000101228A7041684978E3
:1042C00099B9044600200025FCF7DCFF2CA002F081
:1042D000BBFD47F25B20C0F6000002F035F941F269
:1042E00068112046C2F200018D7041680A78012AE7
:1042F00030D14978012913D104460020FCF7D2FFC0
:1043000029A002F0A1FD47F25B20C0F6000002F0F8
:104310001BF941F268112046C2F2000101228A70A5
:1043200040684078002818BFB0BD00200024FCF78A
:10433000A9FF47F6A870C0F6000002F085FD47F21D
:104340005B20C0F6000002F0FFF841F26810C2F2F4
:1043500000008470B0BD00BF2D2D20503250204190
:1043600050504C49434154494F4E205345525645B5
:104370005220203A204C454431204F4E000000008E
:104380002D2D20503250204150504C49434154492A
:104390004F4E2053455256455220203A204C45441A
:1043A00031204F46460000002D2D20503250204134
:1043B00050504C49434154494F4E20534552564565
:1043C000522031203A204C454431204F4E0000000D
:1043D0004FF6426290421CBF9220704780B582B077
:1043E0008C4640F26601C2F20001088889880022EA
:1043F0000223CDF800C001F05BFC02B080BD0000DC
:104400002DE9F04F8BB044F25950C0F6000000F097
:104410000FFD4EF28F50CDF2B350079047F62E703D
:10442000C9F64A00089044F62A00CCF67A40099072
:104430004FF6406040F266050DF11C090A90C2F289
:10444000000502204946012206230095012601F0BD
:1044500089FB4FF6416029460A9031F8020B4EF66F
:10446000195B42F2ED1744F241544FF00008062266
:10447000CAF6826BC9F64C57C8F622644FF00A0A96
:10448000CDE90028059102214A460223CDF81CB04F
:1044900008970994CDE9026A049601F0F3FA4FF601
:1044A000426135F8040B0A911021CDE90018022170
:1044B0004A460223CDF81CB008970994CDE9026A58
:1044C0000496059501F0DEFA0BB0BDE8F08F000010
:1044D00010B541F26814C2F2000420792178B0FAD4
:1044E00080F04009207179B10BA002F02DF847F25D
:1044F0005B20C0F6000002F027F8E11C4FF6426096
:10450000BDE81040FFF764BF47F6FA60C0F6000050
:10451000BDE8104002F018B82D2D20503250204137
:1045200050504C49434154494F4E205345525645F3
:104530005220203A20494E464F524D20434C494587
:104540004E5420425554544F4E203120505553481C
:104550004544200A2000000010B584B04178FF29AE
:104560002BD1B0F8031040F60142914225D140F220
:104570006602C2F200029388B0F8071002338B4241
:1045800007D1407BC0071BD1012001248DF800001A
:104590001AE0528801328A420FD10EA10446084621
:1045A00002F052FC0320E17A8DF8000004F10D00C6
:1045B00000248DF80810019006E0002004B010BD22
:1045C00000208DF8000001246846FFF735FE2046E4
:1045D00004B010BD2D2D2047415454203A204C45A5
:1045E0004420434F4E46494755524154494F4E206F
:1045F00052454345495645440000000070470000BD
:1046000070B56FF0030146F6147201EA9001C0F62E
:1046100000021144B02888BF02F12C01086840F262
:104620000811C5F60001096846F6C46201F00F01E1
:10463000C0F6000252F82110B0FBF1F04DF6836194
:10464000C4F21B31A0FB01018C0CFDF7D1FCB0F5CD
:10465000007F09D100201BA151F8202094420ED9DF
:1046600001300428F8D108E0002013A151F82020DF
:10467000944204D901300328F8D1002502E015A1A5
:1046800051F8205044F20006C5F60006306820F0CC
:10469000070028433060FDF745FB0446306800F012
:1046A0000700A84206D0FDF73DFB001B0328F5D309
:1046B000032070BD002070BD060000000C0000004B
:1046C000100000001200000024000000360000006E
:1046D0004000000000000000010000000200000097
:1046E00003000000FFF798B92DE9F04381B042F6CE
:1046F0002804C4F2000454F8200C41F26C48400530
:10470000C2F2000805D5D8F8000000BFC16849070B
:10471000FCD4D8F8000041F224228168C2F20002E1
:1047200021F48061816040F21211C2F200010B7825
:1047300041F2741903EB430102EBC101C2F200091B
:104740008D68D9F8001041F2202C0131C2F2000C22
:1047500015D021688FB200BF216889B28F420F4601
:10476000FAD1D9F800708F420BD241F28817C2F209
:1047700000073F88D9F80060791A314404E000212D
:104780000BE0D9F80070791A40F28307C2F20007F3
:104790003F789CF800607943F1408FB2BD4201D26E
:1047A00000250DE040F2401EC2F2000EBEF800608F
:1047B0003E44B54203D9BEF80050002101E06D1A15
:1047C000012141F22126C2F20006062B31700DD0E4
:1047D00003EB430102EBC1018B68BB4226BF8B6830
:1047E000DB1B00238B604B7D062BF1D1290439D0D4
:1047F0009CF80020A9B2D2B281F0010182F001023E
:10480000114318BF012100BFC2685207FCD5C2681E
:104810006D1A62F4906121F48061C16040F60C0071
:10482000C5F600004FF4002101600320FDF758FB9E
:1048300054F8140CC5EA000044F8140C206880B247
:104840002168024688B28242FAD1C9F80000D8F83D
:104850000000816841F480618160AFF3008001B0A5
:10486000BDE8F083206881B220680A4681B28A429E
:10487000FAD10320C9F8001001B0BDE8F043FDF7FC
:1048800069BB000080B584B000F10C026B464FF6A6
:1048900066402F2101F0CCFD9DF80E0004B080BDD4
:1048A00080B584B002466B464FF67540102101F08A
:1048B000BFFD9DF80E0004B080BD000080B584B03F
:1048C00000F10C026B464FF668400F2101F0B0FD7D
:1048D0009DF80E0004B080BD70B544F23C01C5F6F1
:1048E000000109680023C2F2030361F38F031A6811
:1048F00045F2B961D2F800C0CAF646118C450146AE
:1049000009D102F1140C02F1180E02F11C0002F19F
:104910000C03103208E01A6802F1100C02F1140EB8
:1049200002F11800131D08320668DCF80000DEF8FA
:104930000040050E0D70050C4D70050A8D70C5B256
:1049400000F00F000871200E1B684871200C887160
:10495000200AC871180E12688872180CC872180ADA
:104960000873100E4873100C2D0988730020CD7049
:104970000C724E72CA7370BDF0B585B04178FF29D4
:1049800060D03E292BD0052940F0CC8140F28C0428
:10499000C2F200048188E28A914213D10021E182AF
:1049A00084F8801047F68641C0F6000105460846A7
:1049B00002F04AFAA988AA7947F60420C0F6000056
:1049C00001F0C2FDFCF76EFB40F22C10E28AC2F24D
:1049D0000000012101704280FFF710FCA2E1C178C4
:1049E000012900F074800C294BD0032940F09A81F2
:1049F00047F6CA31C0F600010446084602F024FA20
:104A0000B4F80700FBF77DFC9FEDDD0B53EC102B9A
:104A1000FBF705FC0246B4F80B00B4F8095000EBB4
:104A20008000440047F69910C0F600000B46CDE91F
:104A3000005401F089FD40F28C00C2F2000090F8B1
:104A400082006BE1B0F80310B1F5006F80F29F8037
:104A5000A1F580620A2A00F2AC80DFE812F00B00B8
:104A6000D200F100E30063013D016301CE000C01BF
:104A70001301EA0047F69820C0F6000002F0E4F9BE
:104A800050E147F63E21C0F600010446084601F019
:104A90005BFD217947F60F32DAA0C0F6000200294B
:104AA00008BF104602F0D0F940F28C00C2F20000BC
:104AB000C08A0DF113010DF1120201F045FA002830
:104AC00000F0858047F65110C0F6000096E040F2F5
:104AD0008C07C2F2000797F8811005460846FFF7D9
:104AE00003F9B5F8051047F2AF60C0F6000001F019
:104AF0002BFDA87AEE7AA97B6A7B6C7A2B7BCDE9B9
:104B0000006047F61E00C0F60000029401F01CFD94
:104B1000B5F80F00FBF7F5FB9FED990B53EC102B4D
:104B2000FBF77DFB0246B5F81300B5F8116000EB0A
:104B30008000440047F69910C0F600000B46CDE90E
:104B4000006401F001FD97F880000521042808BFEA
:104B50000621B5F8052040F22C10C2F20000002416
:104B600087F88010FA8204704280FFF747FB41F219
:104B70002650C2F200000121017041F22551C2F21B
:104B8000000197F883000C704FF48061C8E000F0DA
:104B9000B98040F60E40814240F0C4807AA001F016
:104BA000D3FC40F28C00C2F20000C08A01F03AF857
:104BB000B8E0042940F0B6800120FCF773FB40F216
:104BC0008C00C2F2000090F882000A21A8E047F6AB
:104BD0001A30C0F6000002F037F99DF813109DF866
:104BE0001220022908BF022A00F09F8047F6B60073
:104BF000C0F6000001F0A8FC94E06DA001F0A4FC58
:104C000090E075A10446084602F01EF9E1790029FA
:104C100000F09480227A47F2F660C0F6000001F0BE
:104C200093FC91E047F65C40C0F6000002F00CF9FE
:104C300078E047F62E40C0F6000002F005F971E07A
:104C400047F6C620C0F6000002F0FEF840F28C00E5
:104C5000C2F20000C08A4EF24021C0F2010100F011
:104C6000EDFD002874D0014647F2B270C0F6000096
:104C700001F06AFC56E047F66D20C0F6000002F035
:104C8000E3F84FE047F6FD31C0F600010446084660
:104C900002F0DAF8D4F8071047F29360C0F600008B
:104CA00001F052FCD4F8071047F66B00C0F6000084
:104CB00001F04AFC40F28C00C2F20000C08A0121DF
:104CC00000F094FD00284AD0014647F23270C0F649
:104CD000000001F039FC25E047F6EC20C0F60000AA
:104CE00002F0B2F840F28C00C2F20000C08A00F07C
:104CF000EFFCD8B3014647F28270C0F6000001F025
:104D000023FC0FE040F28C00C2F2000041F2265179
:104D100090F88200C2F2000101220A7040F299115B
:104D2000FEF702FF012005B0F0BD47F6B600C0F661
:104D300000000221022201F007FCF3E747F6E360DE
:104D4000C0F6000002F080F80A2002F077F8E9E7E8
:104D500047F6A430C0F6000002F076F8E2E747F626
:104D60003A30C0F6000002F06FF8DBE747F67F301C
:104D7000C0F6000002F068F8D4E700BF00BF00BF33
:104D8000000000000000F43F3E3E3D3D204143490D
:104D90005F474154545F494E4449434154494F4E43
:104DA0005F56534556545F434F4445200D00000065
:104DB0003E3E3D3D204143495F4741505F50524F89
:104DC000435F434F4D504C4554455F5653455654F1
:104DD0005F434F4445200D003E3E3D3D2041434949
:104DE0005F4741505F50414952494E475F434F4DE5
:104DF000504C4554455F56534556545F434F4445C8
:104E000000000000737461747573206E6F6B200076
:104E100040F25C00C2F200000021017140F2640027
:104E2000C2F20000017000F00DB8000070470000F1
:104E300040F25C01C2F200010A7941F82200501CE4
:104E40000871704780B5FCF7CFF9FCF7E7F9FCF77C
:104E5000A7FAFCF7C7FCFCF721FDFEF771FBFEF794
:104E600071FBFEF771FBFEF7F5FFFFF74FF800F05F
:104E70008BF9FFF79BF8FFF7C3FA00F027FCFFF769
:104E800079F9FCF789FAFFF78FF8BDE88040FFF762
:104E9000CDBF000070B504464078FF2808D0002040
:104EA000022820D008BB2046BDE87040FFF764BD53
:104EB00020794FF44061B1EB002F4FF00000EFD1AB
:104EC00040F25C05C2F2000529790029E8D00026ED
:104ED00055F82610204688470028E1D12979013667
:104EE0008E42F5D3DCE7002070BD012070BD0000CC
:104EF0007047000070B582B040F23810C2F2000076
:104F0000FFF72CF8B0B940F2381440F20006C2F2B4
:104F1000000401ADC2F2030620462946FFF72CF833
:104F2000306901990069FFF70BF82046FFF716F882
:104F30000028F1D002B070BD0120FCF7A3B9000039
:104F4000FCF764BF4EF68850CEF200004FF0000C24
:104F500040F880CC02684FF4E02342F47002026013
:104F60004FF0B04002684FF6FB6142F00102026070
:104F70009422C5F6000242F88C3C0368CFF6F62175
:104F800019400160116821F005011160516821F09C
:104F90000101516041F20001C2F2042142F8881C73
:104FA00042F8841C016821F48021016042F87CCC25
:104FB00070470000B0B540F2C415C2F203050446C4
:104FC0002846FEF7ABFF40F20000C2F20300406843
:104FD000D4E9021240F65823C2F2030380E82A0003
:104FE000C260FEF7B9FAD4E9000140F28802C2F2C9
:104FF0000002106040F28402C2F200020020116040
:10500000B0BD000080B540F20000C2F2030041686C
:10501000012209680A724068FEF7CEFA002080BDBE
:10502000FEF7D2BA40F2000040F23411C2F203009F
:10503000C2F20301016040F25411C2F20301416067
:1050400040F26411C2F20301816040F27411C2F2B5
:105050000301016240F27C11C2F20301416240F29D
:105060008411C2F20301C16040F28C11C2F203014B
:10507000016140F2A811C2F20301416140F2AC119A
:10508000C2F20301816140F2B811C2F20301C161B1
:10509000FEF7C0BA80B5014640F23810C2F20000F7
:1050A000FEF74EFF44F6F560C0F60000BDE8804014
:1050B000FEF7D4BA70B540F2D416C2F20306044625
:1050C0003046FEF72BFF40F23810C2F20000FEF728
:1050D00025FF40F20000C2F20300006941F28C118A
:1050E000C2F20001251D08602ECDC0E9022322680E
:1050F0000661C0E900216169C0E9055170BD000089
:10510000B0B540F2CC15C2F2030504462846FEF7BE
:1051100005FF40F20000C2F20300C068A168C0E9C8
:105120000015FEF70DFBD4E9000141F27812C2F23E
:105130000002106041F27C12C2F2000200201160F5
:10514000B0BD000080B540F20000C2F20300C168AB
:10515000102209680A72C068FEF702FB002080BDB9
:105160007047000010B540F2DC14C2F20304204680
:10517000FEF7D4FE40F20000C2F203004069046072
:10518000BDE81040FEF71CBB70470000002001F096
:10519000F9B8000010B50146407A00F0FE000E2874
:1051A0000AD140F23010C2F20000FEF7C9FE002022
:1051B000BDE8104000F08ABE40F24C04C2F2000488
:1051C0002046FEF7BDFE2046BDE8104000F022BF9D
:1051D00010B540F26C04C2F2000401462046FEF70E
:1051E000AFFE2046BDE8104001F012B9806A0021F0
:1051F000A0F85E10FDF756BF806A0368D0F88820DB
:10520000D0F88CC09B681B061BD5212A19D100221F
:10521000A0F85620026852E8002F036822F0C0026E
:1052200043E800210029F5D1016851E8021F026816
:1052300021F4000142E80213002BF5D12021C0F82F
:10524000881001688968490632D5BCF1220F2FD138
:105250000021A0F85E1000BF016851E8001F02683D
:1052600021F4907142E80013002BF5D14FF6FE7C3B
:10527000CEF6FF7C026852E8022F036802EA0C02B5
:1052800043E802210029F5D1C16E01290AD100BFEE
:10529000016851E8001F026821F0100142E8001384
:1052A000002BF5D12021C0F88C100021C166416788
:1052B000D0F8901041F01001C0F89010FDF7F2BE48
:1052C0000168806A0968890648BFFEF71BB900219A
:1052D000A0F85610016851E8021F026821F0800111
:1052E00042E80213002BF5D1016851E8001F026863
:1052F00041F0400142E80013002BF5D17047000057
:10530000806AFEF71BB9000041F29040C2F2000033
:10531000FDF7CABE40F22800C2F200000021016081
:1053200041F26410C2F2000001607047EFF3108296
:10533000EFF3108372B641F26413C2F2000321B19D
:10534000012906D11968084302E0196821EA000022
:10535000186082F31088704770470000C04300F067
:105360003FB8000070470000EFF31081EFF31082A8
:1053700072B640F23402C2F20002136823EA00005F
:10538000106081F31088704770470000704700007C
:105390007047000070470000EFF31081EFF31083B7
:1053A00072B6B0FA80F0C0F11F0041F29013C0B2A3
:1053B000C2F2000343F8202081F3108870470000F8
:1053C000EFF31081EFF3108272B640F23402C2F2B2
:1053D000000213681843106081F3108870470000C2
:1053E0002DE9F04F83B040F22C01C2F200010A68AF
:1053F00040F2141B1040086041F21C210192C2F2DD
:1054000000010A6840F21811C2F20001D1F800A0B0
:1054100040F23401C2F200010C6840F21C11C2F2E9
:105420000001D1F8009000EA04011142C2F2000B21
:10543000029200F0AA8019EA0A0140F0A68041F227
:10544000142841F21027C2F20008C2F2000700BF80
:10545000414600BF51F8082B22400242FAD051F8D1
:10546000082C51F8043C2240104041F21C251842FF
:1054700004BF4FF0FF3241F8042CC2F200052A6845
:1054800051F8043C3E6866EA03039A4312EA0006B8
:1054900008BF0646002A18BF1A463A6051F8040CA5
:1054A00001233040B0FA80F0C0F11F00C0B2CBF849
:1054B0000000EFF31080EFF3108172B6DBF80010FC
:1054C0002A6803FA01F18A432A60D8F8002022EA08
:1054D0000101C8F8001080F31088DBF80000FFF726
:1054E00059FFDBF800001F283ED841F29011C2F2AC
:1054F000000151F82010B9B3D8F80420012505FAAD
:1055000000F022EA0000C8F80400D8F804408847F8
:10551000D8F804002040C8F80400DBF80000FFF7CA
:1055200035FF41F21C20C2F20000006841F2102257
:10553000029040F21810C2F20000D0F800A040F231
:105540003400C2F20000046840F21C10C2F20000F5
:10555000D0F80090DBF80000C2F20002116805FAF2
:1055600000F00843106002E00020FFF7F5FE40F273
:105570002C00C2F200000068029A00EA0401114205
:1055800003D019EA0A013FF463AF4FF0FF3040F255
:105590001C15CBF80000C2F20005286810EA0A0FBB
:1055A00026D1FFF7F5FEEFF31084EFF3108072B60B
:1055B00041F21C20C2F20000016840F2181040F2D3
:1055C0003402C2F20000C2F2000240F22C03006872
:1055D0001268C2F200031B681140194204D1296805
:1055E000014208BFFFF7BEFE84F31088FFF7CCFE30
:1055F00040F22C000199C2F20000016003B0BDE846
:10560000F08F0000EFF31081EFF3108272B640F2DA
:105610001812C2F2000213681843106081F3108858
:105620007047000041F21C2CEFF31082EFF310835F
:1056300072B6C2F2000CDCF800300343CCF8003044
:1056400041F2142CC2F2000C5CF8313018434CF8D3
:10565000310082F3108870472DE9F04740F21418AA
:1056600040F21C190446C2F20008C2F2000940F2DE
:105670001817D8F80060D9F800A0C9F80040C2F2A5
:1056800000073968B6F1FF354FF0010018BF00FA86
:1056900006F5214207D100BF28462146FFF75EFEEE
:1056A00038682042F8D0C8F80060EFF31080EFF3BC
:1056B000108172B63968A143396080F31088C9F847
:1056C00000A0BDE8F0870000FEE700007047000082
:1056D00010B5C8B042AC0021ADF808002046182231
:1056E0008DF80710FEF762FD3F20C0F29500429052
:1056F00002A84490022045900DF107004690012039
:1057000047902046002100F0B5FC9DF807100028C6
:1057100048BFFF21084648B010BD000010B588B052
:10572000002002AC8DF80700204600211822FEF769
:105730003DFD3F20C0F2920002900DF1070006905F
:10574000012007902046002100F094FC9DF80710EE
:10575000002848BFFF21084608B010BD2DE9F043DE
:10576000C9B00DF1060415460E4607462046002135
:10577000072298464FF00709FEF718FD8DF80F50E5
:1057800043AD2846002118228DF80D708DF80E606B
:10579000FEF70CFD3F20C0F28A0043900DF10D0092
:1057A0004590032046A981E811022846002100F017
:1057B00061FC002805D49DF8060030B149B0BDE871
:1057C000F083FF2049B0BDE8F083BDF80710519881
:1057D000509AA8F80010BDF80910BDF80B301180E0
:1057E0000380002049B0BDE8F083000010B5C8B0C8
:1057F000002242AC8DF80720ADF808008DF80A10A1
:10580000204600211822FEF7D1FC3F20C0F2A5005F
:10581000429002A84490032045900DF10700469065
:10582000012047902046002100F024FC9DF807103D
:10583000002848BFFF21084648B010BD10B5C8B0C9
:10584000002242AC8DF80720ADF80800CDF80A1010
:10585000204600211822FEF7A9FC3F20C0F2880054
:10586000429002A84490062045900DF10700469012
:10587000012047902046002100F0FCFB9DF8071016
:10588000002848BFFF21084648B010BDF0B5C7B09A
:10589000DDE94E4EDDF840C1DDE94C658DF80B4089
:1058A00041AC00278DF805008DF806108DF8072013
:1058B0002046002118228DF804708DF808308DF8EC
:1058C00009608DF80A50CDF80CE08DF810C0FEF795
:1058D0006DFC3F20C0F2860041900DF10500439021
:1058E0000C20449001A845900120469020460021BC
:1058F00000F0C0FB9DF80410002848BFFF210846B7
:1059000047B0F0BD2DE9F04FC7B0DDE952C4DDE985
:1059100050E50DF1050909F10807DDE9548B4FF059
:10592000000A8DF80500ADF80610ADF808203846DD
:1059300061462A467E198DF804A08DF80A308DF84C
:105940000BE08DF80C50FEF72BFC06F8014B3046AF
:10595000414622463719FEF723FC569826F804B034
:105960007880281941AC00F10D052046002118224D
:10597000FEF71CFC3F20C0F28300419001A8459037
:105980000120469020460021CDE9439500F072FBAE
:105990009DF80410002848BFFF21084647B0BDE825
:1059A000F08F000010B5C6B040AC00218DF80100AA
:1059B000204618228DF80010FEF7F8FB3F20C0F2B9
:1059C000850040900DF1010042900120694643900E
:1059D000CDE944102046002100F04CFB9DF800105A
:1059E000002848BFFF21084646B010BD10B588B05A
:1059F000002002AC8DF80700204600211822FEF797
:105A0000D5FB3F20C0F2810002900DF10700069007
:105A1000012007902046002100F02CFB9DF8071084
:105A2000002848BFFF21084608B010BD70B5C6B0B9
:105A3000044600200DF101058DF80000681C224687
:105A40008DF80140FEF7ACFB661C40AC20460021FF
:105A50001822FEF7ABFB3F20C0F28E004090684654
:105A600044900120459020460021CDE9425600F0A7
:105A700001FB9DF80010002848BFFF21084646B0F2
:105A800070BD00002DE9F04FC7B00446881EB0FA83
:105A900080F040090DF1010693460F4605010129EA
:105AA00030464FF000014FF003029A4608BF02252E
:105AB0004FF000094FF00308FEF778FB012FADF817
:105AC00004408DF8067003D0022F1BD1102700E090
:105AD000022701A8529CDDE95098033059463A4606
